:020000040800F2
:10000000E87F00204D010008E52500081D200008BC
:10001000C5250008E1080008793400080000000048
:10002000000000000000000000000000870200083F
:100030000509000800000000F50100086D27000810
:1000400069010008690100086901000869010008E8
:1000500069010008690100086901000869010008D8
:1000600069010008690100086901000869010008C8
:1000700069010008690100086901000869010008B8
:1000800069010008690100086901000869010008A8
:10009000000000006901000869010008690100080A
:1000A0006901000869010008690100086901000888
:1000B0006901000869010008690100086901000878
:1000C0006901000869010008690100086901000868
:1000D000690100086D340008690100086901000821
:1000E0006901000869010008690100086901000848
:1000F000690100080000000000000000690100081C
:100100006901000869010008690100086901000827
:100110006901000869010008690100086901000817
:100120006901000869010008690100086901000807
:100130006901000869010008DFF80CD000F04EFBEF
:1001400000480047CD430008E87F002072B607480A
:10015000804707480047FEE7FEE7FEE7FEE7FEE7C9
:10016000FEE7FEE7FEE7FEE7FEE700001D280008C9
:100170003901000800B52FF043FF5DF804EB70472C
:1001800072B6704762B67047EFF3108072B6704770
:1001900080F310887047B0FA80F0704772B64EF660
:1001A0002250CEF2000040F2FF01C0F200010170C7
:1001B0005F480068006880F3088840F2A050C2F2EF
:1001C000000041F26031C2F200010A6802600020C2
:1001D00080F3098857484FF08051016062B670473C
:1001E00054484FF080510160704752484FF08051A1
:1001F0000160704772B6EFF3098060B1203880E883
:10020000F00F4D4909684A6812B10A7A02B101E05B
:10021000086000E04860484848490A680260506841
:1002200000B105E0EFF3148020F00100106821E038
:10023000507A60B14FF000005072107A18B14FF050
:100240000000107203E04FF001001072FFE7107A17
:1002500040B1FFE7EFF3148020F0010080F3148831
:10026000506807E0EFF3148040F0010080F3148839
:100270001068FFE790E8F00F203080F309884EF017
:10028000040E62B6704772B673466FF00E02A3EBAF
:1002900002037BB173466FF01E02A3EB02034BB166
:1002A000EFF30983203B83E8F00F234A1268546878
:1002B00054B122E062B600B505F09AF85DF804EB9F
:1002C000EFF3088108607047136000B505F090F8FF
:1002D0005DF804EB18490968096808621649174A6D
:1002E00013680B60196891E8F00F203181F30988D9
:1002F00008604EF0040E62B6704713604FF00103C1
:10030000537200B503F0A2FB5DF804EB00B5FFF7F4
:1003100067FF5DF804EB08490968096891E8F00F88
:10032000203181F309884EF0040E62B67047000058
:1003300008ED00E004ED00E0A005002060130020BF
:100340002DE9F05F0546002092469B46884606460A
:10035000814640241BE0284641464746224600F09D
:1003600075F853465A46C01A914110D311461846A3
:10037000224600F05CF82D1A67EB01084F46224632
:100380000120002100F053F817EB00094E41201E18
:10039000A4F10104DFDC484631462A464346BDE865
:1003A000F09F40EA01039B0703D009E008C9121F30
:1003B00008C0042AFAD203E011F8013B00F8013B1F
:1003C000521EF9D27047D2B201E000F8012B491E4B
:1003D000FBD270470022F6E710B513460A460446E2
:1003E0001946FFF7F0FF204610BD10B5044604E0A3
:1003F0000B7800F8013B03B1491C521EF8D220468D
:1004000010BD30B50B46014600202022012409E032
:1004100021FA02F59D4205D303FA02F5491B04FABD
:1004200002F52844151EA2F10102F1DC30BD202A9C
:1004300004DB203A00FA02F1002070479140C2F13B
:10044000200320FA03F3194390407047202A04DB6D
:10045000203A21FA02F00021704721FA02F3D0403D
:10046000C2F1200291400843194670472DE9FE4F22
:10047000804681EA0300C00F0C46009021F0004145
:1004800023F00045B8EB0200A94105D240462146C1
:1004900090461C460B46024623F00040104347D0CE
:1004A000270DC7F30A00C3F30A510290401A0190C6
:1004B00040286BDAC3F3130040F4801B0098924687
:1004C00020B10023D2EB030A63EB0B0B01985946D2
:1004D000C0F140025046FFF7AAFF06460D465046BF
:1004E0005946019A00F08CF910EB08006141002494
:1004F00087EA115284EAE7731A4340D0009A62B344
:10050000019A012A4FEA075215DC001B61EB020138
:100510004FF0004202EA0752CDE90042001C41F5CB
:10052000801132462B4600F08CF903B0BDE8F08F05
:1005300040462146F9E7001B61EB0201001C41F532
:10054000801300185B412018A2F5001747EB030148
:1005500040EAD570B6196D4111E06D084FEA3606D4
:1005600045EAC0754FEA0752001B61EB0201001C0F
:1005700041F5801149084FEA3000001951413246D7
:100580002B4603B0BDE8F04F00F04CB900980122B3
:1005900040000023D0EB020263EBE0730098214699
:1005A0004FEAE074B8EB000061EB0401E9E783F087
:1005B00000435BE781F0004158E72DE9FE4F81EAF7
:1005C000030404F0004421F0004100944FF0000BBC
:1005D00023F0004350EA01045ED052EA03045BD0EA
:1005E000C3F30A54C1F30A552C44A4F2F334019422
:1005F000A0FB0254C1F3130141F48011C3F31303B0
:1006000043F4801301FB024400FB034E840A970A63
:1006100044EA815447EA8357A4FB076802958D0A90
:1006200005FB07854FEA932C04FB0C542705029D1C
:100630004FEA065847EA1637B5EB08056EEB070C8C
:10064000870E920E47EA811742EA8312A7FB020146
:10065000B6EB0B0164EB00042B0D43EA0C335E1880
:1006600044EB1C50DA465146E7FB0201C5F3130484
:100670004FEA0B3343EA14534FEA0432019C43EA36
:100680000603A4F10C040294009CCDE900B400F030
:10069000D8F803B0BDE8F08F00200146F9E72DE956
:1006A000F04D81EA030404F0004B21F000451446AC
:1006B0004FF0000A23F0004150EA050220D054EA2E
:1006C00001021DD0C5F30A570246C5F31303C1F357
:1006D0001300C1F30A5640F4801543F48013A7EBCE
:1006E0000608101BD64608F2FD3873EB050002D34E
:1006F00008F1010801E092185B41B8F1000F03DA3C
:1007000000200146BDE8F08D00204FF48011064620
:1007100084460EE0171B73EB050705D3121B63EB32
:10072000050306434CEA010C49084FEA30009218D1
:100730005B4150EA0107EDD152EA030012D082EA90
:10074000040083EA0501084305D0101BAB4106D223
:100750000122002306E000224FF0004302E06FF088
:10076000010253101AEB06004CEB085110EB0A0083
:1007700041EB0B01BDE8F04D00F054B8C1F30A5253
:10078000C1F3130140F2FF3341F480119A4202DABF
:1007900000200146704740F233439A42A2F23342AE
:1007A00002DC5242FFF752BEFFF741BE30B5041ED5
:1007B00071F1000404DB4FF00044404264EB01019E
:1007C000141E73F1000405DB1C464FF00043524237
:1007D00063EB0403994208BF904230BD064C074DBD
:1007E00006E0E06840F0010394E807009847103401
:1007F000AC42F6D3FFF7A4FCB88F0008D88F0008EE
:10080000202A06DBCB17203A41FA02F043EAE073D4
:1008100006E041FA02F3D040C2F1200291400843C1
:100820001946704710B5141E73F1000408DA401C15
:1008300041F1000192185B411A4301D120F00100FF
:1008400010BD2DE9F04D92469B4611B1B1FA81F2EF
:1008500002E0B0FA80F220329046FFF7E8FD04464D
:100860000F4640EA0A0041EA0B0153465A46084344
:1008700013D0114653EA010019D0C8F14002504686
:10088000FFF7E4FD05460E46504659464246FFF73F
:10089000CEFD084305D0012004E020463946BDE8DE
:1008A000F08D0020054346EAE0762C4337430A9852
:1008B0006305E40AA0EB08000022FD0A44EA47545D
:1008C0000A3002D500200146E9E701051019694107
:1008D000DDE9084500196941BDE8F04DA2E70000D7
:1008E00080B502A007F0FCFEFEE700BF427573462C
:1008F00061756C745F48616E646C65722E2E2E0D8E
:100900000000000001A007F0EBBE00BF4465627567
:10091000674D6F6E5F48616E646C65722E2E2E0D92
:1009200000000000EFF3108072B600BFFEE7000089
:1009300044F21400C5F60000016840F2FA32914317
:100940000160704744F20000C5F6000001680068CD
:100950007047000044F21400C5F60000016841F43D
:10096000803141F0040101607047000044F214013D
:10097000C5F600010A684FF60543CFF6FE731A402C
:1009800042EAC00040F4803040F002000860704746
:1009900044F2140CC5F6000CDCF8001041F0010123
:1009A000CCF800100260BFF36F8F43607047000007
:1009B00080B544F2140EC5F6000EDEF8003043F4A4
:1009C0008023CEF80030EFF3108CEFF3108372B673
:1009D000402300BF51F8042B40F8042B013B13F0D7
:1009E000FF0FF7D15EF8040C10F4803FFAD18CF3BE
:1009F000108880BD70B5044600F03AFA054644F20E
:100A00001006C5F6000600BF306810F4803F07D01E
:100A100000F02EFA401BA042F6D30320C0B270BDF6
:100A2000306810F0010F1CBF012131604CF2FA3127
:100A3000084009D0306047F6C831C2F20001486072
:100A40000120C0B270BD00BF306810F4802F05D007
:100A500000F00EFA401BA042F6D3DEE70020C0B241
:100A600070BD0000002802BF01210846704790F8C1
:100A70002510022929D101680A6822F00E020A60B5
:100A8000816C0A6822F480720A6001680A6822F0A8
:100A900001020A60D0E9102101F01C03012101FAD2
:100AA00003F35360D0E913235360426D002A1FBF44
:100AB000136823F480731360D0E9162318BF5360C2
:100AC00080F825104FF0000102E00421C1630121EC
:100AD000002280F8242008467047000090F8251076
:100AE000022933D101680A6822F00E020A60016807
:100AF0000A6822F001020A60816C0A6822F480729E
:100B00000A60D0E9102101F01C03012101FA03F36E
:100B10005360D0E913235360426D002A1FBF13684E
:100B200023F480731360D0E9162318BF536080F854
:100B300025104FF0000180F82410826B22B180B59F
:100B400090470021BDE88040084670470421C163FA
:100B500001210846704700002DE9F04381B0884626
:100B6000054647F6C834C2F200042078012801D1B6
:100B700002263BE0012020704FF00009C4F80490E9
:100B80004FF47A70FFF736FF06466EBB28680428DC
:100B900007D1FFF7DFFE4FF47A70FFF72BFF064611
:100BA00020E04FF0FF30C8F80000D5E9017038446C
:100BB000874207D313E000BF0137D5E9010108449C
:100BC00087420CD23846FFF7D1FE4FF47A70FFF718
:100BD00011FF0646002EEFD0C8F8007000E0002696
:100BE000FFF7A6FEFFF7AEFE84F80090304601B096
:100BF000BDE8F08344F21400C5F60000016841F03E
:100C0000004101600068012181EAD0707047000056
:100C10002DE9F04381B01E4615460F46804647F643
:100C2000C834C2F200042078012802BF022001B0BB
:100C3000BDE8F0834FF0010020704FF00009C4F8C8
:100C400004904FF47A70FFF7D5FEB8B93846B8F182
:100C5000010F04D12A463346FFF79AFE02E02946E7
:100C6000FFF7A6FE4FF47A70FFF7C4FE44F21401BA
:100C7000C5F600010A6822EA08020A6084F80090BA
:100C800001B0BDE8F083000044F20800C5F60000A2
:100C9000C168B1F1FF3FC4BF0020704740F223118B
:100CA000C4F26751016048F6AB11CCF6EF51016018
:100CB000C0684FEAD07070472DE9F04F81B00E68E0
:100CC000002E00F0D18040F60002C5F6000202F1CD
:100CD000704290424FF0070208BF022200924FF08C
:100CE000010E00244FF0030C40F6040BC5F6000B78
:100CF00000224FF0010A00BFAAF101090EFA09F320
:100D000016EA030800F0A5804E6806F00306013ECF
:100D1000012E12D80CFA02F6856825EA0606CD687F
:100D200095402E438660466826EA03034E68C6F364
:100D3000001606FA09F6334343604B6803F00303D9
:100D4000032B08D00CFA02F3C66826EA03038E6868
:100D500096403343C3604B6803F00303022B12D168
:100D600004F01C030F2505FA03F64FF6FC75C7F6D1
:100D7000FF7505EA590505442F6AB7430E6906FA5F
:100D800003F33B432B620CFA02F3076827EA0303E1
:100D90004F6807F0030797403B4303608B799B073D
:100DA00057D004F00C0E072303FA0EF34FEA99060E
:100DB0000825C4F2010555F8265025EA0303B0F1D1
:100DC000904F08D040F20045C4F60005A842009DAF
:100DD00008BF012500E0002505FA0EF73B43082770
:100DE000C4F2010747F8263040F60003C5F60003B9
:100DF0001E46336823EA08034F6817F4801F18BFA4
:100E000043EA08033360DBF8003023EA08034F6845
:100E100017F4001F18BF43EA0803CBF80030DBF8D3
:100E20007C3023EA08034F6817F4803F18BF43EA79
:100E30000803CBF87C30DBF8803023EA08034F68E6
:100E400017F4003F18BF43EA0803CBF880304FF097
:100E5000010E0E6836FA0AF304F1040402F10202EC
:100E60000AF1010A7FF448AF01B0BDE8F08F00003D
:100E700047F6E430C2F200000068704740F26000BC
:100E8000C2F20000007847F6E431C2F200010A68BD
:100E9000104408607047000080B5032000F09CF803
:100EA00000F024FA40F20401C2F2000108600F20B1
:100EB00000F00AF800281CBF012080BD00F078F87F
:100EC0004FF0000080BD0000B0B5044640F2600560
:100ED000C2F200052878002802BF01252846B0BDCF
:100EE00000F004FA29784FF47A72B2FBF1F1B0FB0A
:100EF000F1F000F037FD4FF001050F2C0CD858B978
:100F000000254FF0FF302146002200F055F840F256
:100F10006400C2F2000004602846B0BD42784EF67C
:100F20009C5CCEF2000C4CF8042C02781AB310B57D
:100F30004268CCF80020027BC37A1B0643EA0272A7
:100F400090F800E0017A437A847A42EAC442447B12
:100F500042EA8442847B42EA4442C07B42EA004047
:100F600040EA032040EA410040EA0E00BDE810409C
:100F7000CCF8040070470020CCF80000CCF8040046
:100F800070470000BFF35F8F4EF69450CEF2000022
:100F9000002101607047000040F001004EF69451BE
:100FA000CEF200010860BFF34F8FBFF36F8F704721
:100FB0007047000002F072BA70B514460D4606463E
:100FC00002F07EFA2946224601F01AFB014630461D
:100FD000BDE8704002F07CBA02F094BA40F20040E2
:100FE000C5F60000006800F4C060704740F20040A1
:100FF000C5F60000016841F480710160704700008F
:10100000F0B581B00446A078C00740F20C06C5F6E2
:10101000000637D0FFF7EAFFFFF72AFF054600BFBB
:10102000D6F8F40310F4807F06D1FFF721FF401BB0
:101030000228F5D9032526E001F060F8616B8842AB
:101040001DD0D6F8845001F029F825F4407701F03E
:101050006BF9C6F8847015F0020F10D0FFF708FF87
:10106000054641F2883700BF01F0D4F8012806D0C8
:10107000FFF7FEFE401BB842F6D9032503E0606B84
:1010800001F0CEF900252078C0071CBF606801F090
:10109000DBF92078800744BFA06801F0D5F92078FB
:1010A000800644BF206901F0A7F96078800744BF3B
:1010B000206A01F091F96078400744BF606A01F04E
:1010C0008BF96078000744BFA06A01F085F92078A9
:1010D000400644BF606901F063F92078000644BF10
:1010E000A06901F05DF96078C0071CBFE06901F0FC
:1010F00057F92078C0060AD5E06801F063F9E06886
:10110000B0F5807F02BF306840F08070306060785A
:10111000000609D5206B01F079F9206B002802BF89
:10112000306840F080703060607840060AD5E06A30
:1011300001F002F9E06AB0F1005F02BF306840F4EC
:1011400080303060E8B201B0F0BD00002DE9F04120
:101150000C460546002D00F0C48044F20007C5F699
:101160000007386800F00700A04212D2386820F06B
:10117000070020433860FFF77BFE0646386800F022
:101180000700A04205D0FFF773FE801B0228F5D9A7
:1011900048E0287880070ED5A86801F0E3F8FFF74B
:1011A00067FE064601F00EF828B9FFF761FE801BC6
:1011B0000228F7D936E0287840060ED5686901F094
:1011C000C5F8FFF755FE064601F014F828B9FFF7F9
:1011D0004FFE801B0228F7D924E0287840070ED55F
:1011E000E86801F0C9F8FFF743FE064600F0F2FF99
:1011F00028B9FFF73DFE801B0228F7D912E02878B6
:10120000000713D52869C00001F0C0F8FFF730FED1
:10121000064600BF00F0E6FF40B9FFF729FE801B3D
:101220000228F7D90320C0B2BDE8F0812878C007B2
:1012300023D0686838B103284AD002284DD100F085
:101240009BFF20B94DE001F029F8002849D06868DB
:1012500001F0F0F8FFF70CFE064641F2883800BFB7
:1012600000F054FF6968B0EB810F06D0FFF700FE75
:10127000811B03204145F3D917E0386800F00700CF
:10128000A04215D9386820F0070020433860FFF7E6
:10129000EFFD0546386800F00700A04208D0FFF7D0
:1012A000E7FD411B03200229F4D9C0B2BDE8F0815B
:1012B00000F01CF840F20401C2F20001086040F2A4
:1012C0006400C2F200000068BDE8F041FFF7FCBD19
:1012D00001F024F80028BAD103E000F063FF0028F1
:1012E000B5D10120C0B2BDE8F081000010B500F01A
:1012F0002FF8044600F0E2FE3C2101EA900048F29B
:101300003071C0F600010858B4FBF0F010BD0000C9
:1013100010B5FFF7EBFF044600F0D8FE000A48F2D4
:101320007071C0F6000151F8200024FA00F010BDE1
:1013300010B5FFF7DBFF044600F0D0FEC00A48F20C
:101340007071C0F6000151F8200024FA00F010BDC1
:10135000F0B581B000F0DAFE044642F20046C0F279
:10136000F40644F60007C0F2E81700F0BFFF1CB116
:101370000C2C08BF012815D100F08AFF054600F0AB
:1013800087FF25B1012807D100F074FF06E001288E
:1013900013D100F06FFF12E000F072FF00F0F000D8
:1013A00004210FE0042C3DD0082C3ED100F0DEFEDD
:1013B00001283C4608BF344638E000F061FF00F4E5
:1013C00070600821C84048F29071C0F6000151F8E1
:1013D0002050002C2C4618BF002400F097FE0C284B
:1013E0001DD100F083FF022808D0032805D100F0AA
:1013F000BDFE012818BF3E4600E02E4600F07EFFED
:1014000000FB06F400F06AFF012505EB1010B4FBA9
:10141000F0F400F07BFF05EB5070B4FBF0F42046D5
:1014200001B0F0BD00253446D7E700240025D4E7FD
:101430002DE9F0470446002C00F0A18000F066FE84
:10144000814600F053FF06462078800640F290085F
:10145000C5F6000851D42078C0070ED0B9F1080FA6
:1014600005D0B9F10C0F08BF032E40F05A81606817
:10147000002804BF0120BDE8F0872078800711D53F
:101480002069B9F1040F05D0B9F10C0F08BF022E85
:1014900040F05B81002804BF0120BDE8F08760694F
:1014A00000F086FE2078000759D42078400769D4E0
:1014B000E66A002E00F01C82B9F10C0F40F0E880C3
:1014C000012E5CD058F8840C216B00F003028A4294
:1014D00055D1616B00F070028A4250D1A16B00F4CB
:1014E000FE42B2EB012F4AD1616C00F060408842AD
:1014F0001CBF0120BDE8F087FAE1206AB9F1000FB6
:1015000005D0B9F10C0F08BF012E40F0AD80B0B38B
:10151000A06A4FF0B0410A6812F0080F06BFD8F871
:1015200004100909096801F0F001884262D901F04C
:10153000C9F800281CBF0120BDE8F0874FF0B0407B
:10154000016841F0080101600168A26A21F0F00120
:1015500041EA02010160606A00F0A6FE61E0A06954
:10156000002870D0D8F8040000F01001E2698A4227
:1015700000F0448100F00301022940F0FB800120CB
:10158000BDE8F08700F082FD70B9FFF72FFDFFF78F
:101590006FFC064600F07AFD30B9FFF769FC811B4D
:1015A00003200229F6D9A4E1E068002800F0F480C5
:1015B000852818BF052805D1D8F8000040F00400A0
:1015C000C8F80000FFF754FC0646D8F8000040F0C9
:1015D0000100C8F8000041F2883700BF00F012FE99
:1015E000002840F07F80FFF743FC811B0320B942B5
:1015F000F4D97EE14FF0B040016841F0080101608C
:101600000168A26A21F0F00111430160606A00F0F4
:101610004BFEA06A01F056F800281CBF0120BDE86F
:10162000F087FFF763FE40F20401C2F20001086098
:1016300040F26400C2F200000068FFF745FC002899
:1016400040F0578107E700F0EDFDFFF711FC06467B
:1016500000F0F8FD00283FF428AFFFF709FC811BDC
:1016600003201129F4D944E1002800F0AE8000F0F5
:10167000F9FDFFF7FDFB074600F010FE002840F0E3
:10168000CF80FFF7F5FBC11B03200229F4D930E11D
:1016900000F014FEFFF7ECFB0546022E14D100BF4C
:1016A00000F03CFE002800F0F980FFF7E1FB411B51
:1016B00003200A29F4D91CE1FFF7DAFB411B0320C0
:1016C0000A2988BFBDE8F08700F028FE0028F3D182
:1016D00058F8840C4FF6FC71CEF6FE61084048F8CD
:1016E000840C05E1E06840F00400852840F0A88003
:1016F000FFF7BEFB0646D8F8000040F08000C8F8AF
:10170000000041F2883500BFD8F8000010F4006FE7
:101710007FF4CEAEFFF7ACFB811B0320A942F3D9C7
:10172000E7E04FF0B0400168A26821F48011114356
:1017300001606068B0F5041F00F0EE80B0F5803FF6
:1017400040F0EF8000F002FDEFE0002800F0D380D1
:1017500000F020FDFFF78CFB064600BF00F022FDE5
:1017600000287FF49CAEFFF783FB811B0320022936
:10177000F4D9BEE0C00739D000F054FDFFF778FB84
:10178000064600BF00F05EFD80B3FFF771FB811BD2
:1017900003201129F6D9ACE0FFF76AFB0746D8F819
:1017A000000020F08000C8F8000041F2883A00BF35
:1017B000D8F80050FFF75CFB064615F4006F58D0D0
:1017C000F11B03205145F3D993E000F043FDFFF7EF
:1017D0004FFB074600F062FD00283FF43CAEFFF7E8
:1017E00047FBC11B03200229F4D982E0D8F804008A
:1017F000E16920F010000843C8F8040000F01AFD69
:10180000FFF736FB064600BF00F01CFD00287FF402
:101810004CAEFFF72DFB811B03201129F4D968E0A2
:101820004FF0B040016841F0080101600168A26A10
:1018300021F0F00111430160606A00F035FD0AE615
:10184000FFF716FB0646D8F8000020F08000C8F825
:10185000000041F2883500BFD8F8000010F4006F96
:101860003FF426AEFFF704FB811B0320A942F3D906
:101870003FE0D8F8000020F00100C8F8000041F275
:10188000883700BF00F0BEFC00283FF411AEFFF720
:10189000EFFA811B0320B942F4D92AE058F8840CEE
:1018A00048F28C01C1F2C111084004F130078ECF1B
:1018B000D4E910650843104340EA0320384330431D
:1018C000284348F8840C00F001FD58F8840C40F0DF
:1018D000805048F8840CFFF7CBFA044600F01EFD58
:1018E00030B9FFF7C5FA011B03200A29F6D900E039
:1018F0000020BDE8F08700F045FCFFF7B9FA064686
:1019000000F050FC00283FF4CDADFFF7B1FA811B89
:1019100003200229F4D9ECE700F020FC00F016FCCB
:1019200003E000F003FC00F009FC6568FFF7A0FA93
:1019300007465DB100F020FC00287FF49EADFFF764
:1019400097FAC11B03206429F4D9D2E700F014FCF4
:1019500000283FF492ADFFF78BFAC11B03206429E6
:10196000F4D9C6E700F0D2BE90F88410012902BF76
:101970000221C8B270474FF02401C0F888100168F6
:101980000A680B6823F001030B604FF00001416609
:1019900022F0005203681A604FF02002C0F888203D
:1019A00080F88410C8B2704770470000704700008C
:1019B000B0B5044694F88400012802BF0220C0B2EA
:1019C000B0BD4FF0010084F884004FF02400C4F84B
:1019D000880020680568026822F001020260206821
:1019E000826822F0606241EA02018160204600F0D4
:1019F00017FF206805604FF02000C4F888004FF002
:101A0000000084F88400C0B2B0BD0000B0B5044648
:101A100094F88400012802BF0220C0B2B0BD4FF08C
:101A2000010084F884004FF02400C4F88800206886
:101A30000568026822F0010202602068826822F0D4
:101A4000604241EA02018160204600F0E9FE206820
:101A500005604FF02000C4F888004FF0000084F8C3
:101A60008400C0B2B0BD00007047000070470000A5
:101A700070470000B0B504462268D16940F62F00D7
:101A800001EA00031068D2F808E0202B0DD100F025
:101A900020020EF080531A4307D0616F002900F036
:101AA0006F812046BDE8B040084740F60F020A406B
:101AB00000F09D8040F22012C0F20042024001235B
:101AC000C1F200030EEA030C52EA0C0200F08F8010
:101AD000CA0718BF10F4807208D02268012313626D
:101AE000D4F8902042F00102C4F890200EF00103D7
:101AF0008A0709D543B1226802251562D4F89020DF
:101B000042F00402C4F890204A0709D543B1226884
:101B100004231362D4F8902042F00202C4F890200B
:101B20000A070DD500F0200252EA0C0208D0226804
:101B300008231362D4F8902042F00802C4F89020E1
:101B40000A050CD510F0806209D022684FF40063BA
:101B50001362D4F8902042F02002C4F89020D4F808
:101B60009020002A00F00C8111F020011EBF00F02F
:101B700020000EF0805150EA010004D0616F00296E
:101B80001CBF20468847D4F8900000F02800216848
:101B9000896801F04001084300F0EC80204600F025
:101BA00017FF2068806810F0400F00F0D78000BF5A
:101BB000206850E8020F216820F0400041E802024E
:101BC000002AF5D1D4F88000002800F0C78042F642
:101BD000C111C0F600018163FEF780FF002800F00C
:101BE000CF80D4F88000816BBDE8B040084701EA9F
:101BF0000003DA06E26E42D5012A40D120681021A6
:101C000001622068806810F0400F46D1B4F85C0093
:101C1000B4F85E10B4F85E20002A1EBF401A81B2EC
:101C2000002900F0AD8000BF206850E8000F226856
:101C300020F4907042E80003002BF5D14FF6FE70BF
:101C4000CEF6FF70226852E8022F0240236843E874
:101C50000225002DF6D12020C4F88C000020E0667B
:101C6000606700BF206850E8000F226820F0100075
:101C700042E80003002BF5D1022020675CE0CA0295
:101C80005FD51EF480025CD020684FF480110162A1
:101C90002046BDE8B040FFF7E9BED4F880000068F8
:101CA000406881B200296BD0B4F85C20914267D2C1
:101CB000A4F85E00D4F880000068006810F0200FDF
:101CC00032D100BF206850E8000F216820F48070F6
:101CD00041E80002002AF5D1206850E8020F21688F
:101CE00020F0010041E80202002AF5D1206850E806
:101CF000020F216820F0400041E80202002AF5D1DD
:101D00002020C4F88C000020E06600BF206850E866
:101D1000000F216820F0100041E80002002AF5D1F0
:101D2000D4F88000FEF79EFE02202067B4F85C0025
:101D3000B4F85E10401A81B22046BDE8B040FFF70B
:101D400033BE0A060FD500F080020EF400052A43C8
:101D500009D0A16F00297FF4A4AE11E02046BDE8B0
:101D6000B040FFF785BE5A060BD52046BDE8B0400F
:101D700000F05CBE2046FFF77BFE0020C4F8900018
:101D8000B0BD0A0207D510F0804204D02046BDE85D
:101D9000B040FFF769BEC901F2D5B0F1FF3FC8BF3F
:101DA000B0BD2046BDE8B040FFF700BE10B5044608
:101DB000ACB1D4F8880028B9002084F8840020460B
:101DC00000F02AF82420C4F888002068016821F077
:101DD00001010160204601F0F1F8012801D1012044
:101DE00010BDA06A00281CBF204600F049FD2068F5
:101DF000416821F4904141602068816821F02A0106
:101E000081602068016841F0010101602046BDE861
:101E1000104000F09BBD000010B594B004460020B7
:101E20001390CDE91100CDE90F0001A83821FEF78C
:101E3000D1FA206844F20041C4F20001884201D086
:101E400014B010BD022401940420C0F20C000390D1
:101E500001A8FFF7D5F8002818BFFEF763FD00F0D2
:101E600005F900F0F3F84FF00C00CDE90F044FF046
:101E70000000CDE911004FF0070013900FA94FF0BB
:101E80009040FEF719FF4FF025004FF000014FF092
:101E90000002FFF791F84FF02500FFF78BF814B020
:101EA00010BD0000D0F88C30202B1EBF0223D8B20A
:101EB00070474FF00103002918BF002A21D080B5D8
:101EC0000023C366D0F800C048F20003C4F2000348
:101ED0009C451CBFDCF8043013F4000F0CD000BF8D
:101EE000036853E8003FD0F800C043F080634CE83B
:101EF000003EBEF1000FF3D101F0A8F90023BDE8C8
:101F00008040D8B27047000080B5006844F20041BC
:101F1000C4F20001884200D080BD04F08DFA002890
:101F200008BF80BD04F048FA40F26800C2F2000029
:101F3000416821B147F6E030C2F20000884704F062
:101F40004BFA40F20850C2F2000047F6E031C2F20C
:101F500000010122FFF7A6FF80BD00002DE9F0433C
:101F600081B01D4616460F460446D4F88800202846
:101F70001CD10120002F18BF002E48D04FF00009BF
:101F8000C4F890902120C4F88800FEF771FF8046C5
:101F9000A4F85460A4F85660A068B0F5805F07D13B
:101FA0002669002E0CBFB9463E4608E002202EE00E
:101FB0003E4604E0B4F856000138A4F85600B4F8E0
:101FC0005600A0B10095204680210022434601F032
:101FD000D5F9B0B920681EB116F8011B8162E9E796
:101FE00039F8021B6FF35F2181620026E2E700955A
:101FF000204640210022434601F0C0F918B10320D9
:1020000005E0032003E02020C4F888000020C0B2CF
:1020100001B0BDE8F08300007047000070461EF07C
:10202000040F0CBFEFF30881EFF3098101F0A2FD6B
:1020300081B04C21C5F600010A6802430A600968B4
:1020400008400090009801B07047000081B04C201B
:10205000C5F60000016841F001010160006800F070
:1020600001000090009801B07047000081B0582036
:10207000C5F60000016841F400310160006800F419
:1020800000300090009801B07047000040F200401E
:10209000C5F600000068C0F3002070479020C5F628
:1020A0000000016841F480310160704740F208107F
:1020B000C5F6000000680001C0B270470820C5F6F0
:1020C0000000006800F0F000704700000820C5F62E
:1020D0000000006800F4E060704700000820C5F6CA
:1020E0000000006800F46050704700008820C5F6CA
:1020F0000000006800F44060704700009020C5F6C2
:102100000000006800F44070704700000820C5F629
:102110000000006800F00C00704700008821C5F640
:1021200000010968014041EA004070474FF0B040AB
:10213000016821F480310160704700004FF0B04029
:10214000016821F400110160704700004FF0B040B9
:10215000016841F480310160704700004FF0B040E9
:10216000016841F400110160704700004FF0B04079
:102170000068C0F3005070474FF0B0400068C0F3F3
:10218000404070474FF0B040016821F48071016019
:10219000704700004FF0B040016841F48071016069
:1021A000704700004FF0B0400068C0F380207047D7
:1021B0000421C5F600010A6822F0FE4242EA0060EE
:1021C000086070470820C5F600000068C0F30040B2
:1021D000704700000820C5F600000068C0F34040CA
:1021E000704700000820C5F600000068C0F380407A
:1021F0007047000040F20810C5F600000068C0F308
:10220000004070479020C5F600000068C0F3400011
:10221000704700009020C5F600000068C0F3400041
:10222000704700009420C5F60000016821F001010C
:10223000016070479420C5F60000016841F001017B
:10224000016070479420C5F600000068C0F34000AC
:10225000704700004FF0B040016821F001010160BB
:10226000704700004FF0B040016841F0010101608B
:10227000704700004FF0B040006800F0F000704779
:102280009420C5F60000006800F4706070470000FC
:102290004FF0B0400068C0F3C00070474FF0B0404E
:1022A0000068C0F3400070470421C5F600010A68C9
:1022B00022F47F4242EA0020086070474FF0B040AD
:1022C000016821F080710160704700004FF0B0405C
:1022D000016841F080710160704700000C20C5F674
:1022E0000000006800F07000704700000C20C5F688
:1022F0000000006800F00300704700000C20C5F6E5
:1023000000000068C0F30620704700000C20C5F6EE
:102310000000006800F06040704700004FF0B040DF
:102320000068C0F3406070479020C5F60000016867
:1023300021F48031016070478821C5F600010A68E8
:1023400022F04052104308607047000040F208112C
:10235000C5F600010A6822F00F0242EA1010086078
:10236000704700000821C5F600010A6822F0F0025B
:1023700010430860704700000821C5F600010A6894
:1023800022F4E06210430860704700000821C5F69F
:1023900000010A6822F46052104308607047000090
:1023A0004FF47F2101EA00116FF47F2242EA1010FE
:1023B00080F47F208822C5F6000213681840084385
:1023C000106070478821C5F600010A6822F4407247
:1023D00010430860704700004FF6FF71014381F021
:1023E0007F4181F47F018822C5F6000213681940FD
:1023F00041EA0040106070478821C5F600010A6874
:1024000022F4406210430860704700008821C5F63E
:1024100000010A6822F04042104308607047000043
:102420009021C5F600010A6822F44072104308604A
:10243000704700000821C5F600010A6822F0030277
:1024400010430860704700008821C5F600010A6843
:1024500022EA104280B210430860704780B58CB009
:10246000FEF790FD01208DF8200040F2000CC0F630
:10247000020C0CF5803109914FF00F0E8DF828E019
:1024800006218DF82B1000218DF82F108DF82E10BD
:102490008DF82D008DF821108DF82A108DF8291057
:1024A0008DF82C108DF8100048F20002C2F20002E4
:1024B00005920E228DF8182003228DF81B208DF82E
:1024C0001F008DF81E008DF81D1002238DF81130AD
:1024D0008DF81A108DF819108DF81C108DF8000069
:1024E000CDF804C08DF808E08DF80B208DF80F00B2
:1024F0008DF80E008DF80D1005208DF801008DF877
:102500000A108DF809108DF80C1008A8FEF706FDCA
:1025100004A8FEF703FD6846FEF700FD0420FEF761
:102520003BFD0CB080BD000080B50420FFF780FDAE
:102530000120BDE88040FFF77BBD000080B540F280
:102540000850C2F2000044F20041C4F200010160F0
:102550004FF4E13141600021C0E9021101610C2218
:10256000C0E90911C0E90711C0E90521FFF71EFC08
:10257000002818BFFEF7D6F940F20850C2F200005A
:102580004FF00001FFF742FA002818BFFEF7CAF922
:1025900040F20850C2F200004FF00001FFF708FAC5
:1025A000002818BFFEF7BEF940F20850C2F2000042
:1025B000FFF7DAF900281CBFBDE88040FEF7B2B98A
:1025C00080BD000001A006F08BB800BF4D656D4DC9
:1025D000616E6167655F48616E646C65722E2E2E58
:1025E0000D00000080B502A006F07AF8FEE700BFFB
:1025F0004E4D495F48616E646C65722E2E2E0D0043
:1026000000F0070000F1040CC31EBCF1070F38BF37
:10261000002380F00700042828BF04204FF0010C9D
:102620000CFA00F00138084098400CFA03F1013927
:10263000114008437047000070B544F20005C5F62C
:102640000005B1F5007F0DD1002148F2D072C0F62F
:10265000000200BF32F81130834212D20131032947
:10266000F8D30CE0002148F2D672C0F6000200BF99
:1026700032F81130834204D201310329F8D3002605
:1026800002E00DA050F82160286820F007003043D8
:102690002860FEF7EDFB0446286800F00700B04212
:1026A00007D0FEF7E5FB001B0328F5D30320C0B2DB
:1026B00070BD0020C0B270BD00000000010000002D
:1026C00002000000B0B53C2404EA900048F290718A
:1026D000C0F600010D58FFF7E9FC04EA900048F24B
:1026E0003071C0F600010858B5FBF0F04DF683617B
:1026F000C4F21B31A0FB01018C0CFEF76FFC0146FC
:102700002046BDE8B040FFF797BF0000B0B50138E4
:102710000024B4EB106F1EBF01242046B0BD4EF262
:102720001005CEF2000568604FF0FF304FF00F014A
:1027300000F0CEFEAC604FF0070028602046B0BD30
:10274000B0B501380024B4EB106F18BFB0BD4EF225
:102750001005CEF2000568604FF00F0000F0CAFED1
:10276000AC604FF007002860B0BD000080B5FEF7F8
:1027700085FB03F061FE002808BF80BD03F01CFE4E
:1027800005F0CCFABDE8804003F026BEB0B59AB0A3
:1027900008AC201D2821FDF71DFE0025CDE90655BA
:1027A000CDE90455CDE9025540F20040C5F60000E0
:1027B0000168012262F34A210160006800F4C060F0
:1027C00001900198022008904FF480710C914021F3
:1027D0000D91CDE913001595082016904FF40030A7
:1027E00017904FF0C04019904FF00070189020469D
:1027F000FEF71EFE78B94F20029003200795CDE921
:102800000555CDE9030502A80121FEF79FFC00282C
:1028100004BF1AB0B0BDFEF785F800007047000095
:10282000416EF9B180B501688A688968490F0FF275
:10283000400C1CF801300FF2400E1EF80110C900C8
:10284000B1FBF3F1A0F86A10C2F342611CF8012059
:102850001EF80110C900B1FBF2F1BDE88040A0F8FC
:10286000681070470121A0F86A10A0F8681070473E
:10287000080402040801010101010103070100002D
:1028800090F82810C90706D001684A68C36A22F484
:1028900000321A434A6090F82810890706D501686B
:1028A0004A68036B22F480321A434A6090F8281079
:1028B000490706D501684A68436B22F480221A430F
:1028C0004A6090F82810090706D501684A68836BAA
:1028D00022F400421A434A6090F82810C90606D52F
:1028E00001688A68C36B22F480521A438A6090F8A8
:1028F0002810890606D501688A68036C22F4005204
:102900001A438A6090F82810490611D501684A6870
:10291000436C22F480121A434A60416CB1F5801F67
:1029200006D101684A68836C22F4C0021A434A60E7
:1029300090F82810090658BF704701684A68C06CB3
:1029400022F4002240EA020048607047B0B582B02D
:1029500004460020C4F89000FEF78AFA0546206875
:10296000006810F0080F0CD06FF07E4000902046F9
:102970004FF4001100222B4600F000FD08B10320A7
:102980001BE02068006810F0040F0CD06FF07E4050
:10299000009020464FF4800100222B4600F0EEFC10
:1029A00008B1032009E02020C4F88800C4F88C0096
:1029B0000020E066206784F88400C0B202B0B0BD99
:1029C000806A0021A0F85E10A0F85610FFF750B8FA
:1029D000016851E8001F026821F4907142E8001379
:1029E000002BF5D14FF6FE7CCEF6FF7C026852E854
:1029F000022F02EA0C02036843E802210029F5D104
:102A0000C16E01290AD100BF016851E8001F0268A8
:102A100021F0100142E80013002BF5D12021C0F86D
:102A20008C100021C166416770470000016851E8C1
:102A3000001F026821F0400142E80013002BF5D18D
:102A40002021C0F8881000218167FFF7E5BA000057
:102A5000B0F86020D0F88C300168222B5DD1496A33
:102A60001140826D22F8021B8265B0F85E100139B8
:102A7000A0F85E10B0F85E10002918BF704700BFC4
:102A8000016851E8001F026821F4907142E80013C8
:102A9000002BF5D1016851E8021F026821F0010105
:102AA00042E80213002BF5D12021C0F88C10002140
:102AB00041670167016848F20002C4F200029142D6
:102AC0001CBF496811F4000F0AD000BF016851E82B
:102AD000001F026821F0806142E80013002BF5D14D
:102AE000C16E012918BFFFF70FBA4FF00001C16690
:102AF000016851E8001F026821F0100142E800134C
:102B0000002BF5D10168CA6912F0100F1CBF10220A
:102B10000A62B0F85C10FEF747BF886940F0080011
:102B2000886170472DE9F04F81B00446B4F8609099
:102B30002168CA6908688968D4F88C30222B40F073
:102B4000D880B4F86860002E18BF12F0200200F0A0
:102B5000AB8001F0010700F480784FF6FE75CEF6E9
:102B6000FF754FF0000B00BF2068406A00EA0900C3
:102B7000A16D21F8020BA165B4F85E000138A4F83C
:102B80005E002068D0F81CA01AF0070F32D0B8F110
:102B9000000F0BD01AF001011FBF01210162D4F810
:102BA000900040F0010018BFC4F89000002F18BF3B
:102BB0001AF0020008D0206802210162D4F89000C7
:102BC00040F00400C4F89000002F18BF1AF0040071
:102BD00008D0206804210162D4F8900040F002007F
:102BE000C4F89000D4F8900020B12046FEF740FFD2
:102BF000C4F890B0B4F85E0000284FD1206850E8C7
:102C0000000F216820F4807041E80002002AF5D10D
:102C1000206850E8020F2840216841E80202002A9B
:102C2000F6D12020C4F88C00C4F874B0C4F870B099
:102C3000206848F20001C4F2000188421CBF4068CD
:102C400010F4000F0AD000BF206850E8000F216880
:102C500020F0806041E80002002AF5D1E06E0128F2
:102C600019D1C4F86CB000BF206850E8000F21688B
:102C700020F0100041E80002002AF5D12068C16967
:102C800011F0100F1CBF10210162B4F85C10204637
:102C9000FEF78AFE02E02046FFF736F9002E18BF45
:102CA0001AF020007FF460AFB4F85E00F0B1B4F821
:102CB000681088421AD200BF206850E8020F2168CD
:102CC00020F0805041E80202002AF5D142F651205E
:102CD000C0F60000606700BF206850E8000F216860
:102CE00040F0200041E80002002AF5D101B0BDE823
:102CF000F08F2068816941F00801816101B0BDE871
:102D0000F08F0000B0F86020D0F88C300168222BE2
:102D10005DD1496A1140826D1170816D013181650B
:102D2000B0F85E100139A0F85E10B0F85E1000290E
:102D300018BF7047016851E8001F026821F49071C4
:102D400042E80013002BF5D1016851E8021F026828
:102D500021F0010142E80213002BF5D12021C0F837
:102D60008C10002141670167016848F20002C4F23B
:102D7000000291421CBF496811F4000F0AD000BF45
:102D8000016851E8001F026821F0806142E80013E9
:102D9000002BF5D1C16E012918BFFFF7B5B84FF070
:102DA0000001C166016851E8001F026821F01001AE
:102DB00042E80013002BF5D10168CA6912F0100F28
:102DC0001CBF10220A62B0F85C10FEF7EDBD8869E6
:102DD00040F00800886170472DE9F04F81B004464B
:102DE000B4F860902168CA6908688968D4F88C30A2
:102DF000222B40F0DA80B4F86860002E18BF12F081
:102E0000200200F0AD8001F0010700F480784FF659
:102E1000FE75CEF6FF754FF0000B00BF2068406ACC
:102E200000EA0900A16D0870A06D0130A065B4F83A
:102E30005E000138A4F85E002068D0F81CA01AF0EB
:102E4000070F32D0B8F1000F0BD01AF001011FBFED
:102E500001210162D4F8900040F0010018BFC4F8CD
:102E60009000002F18BF1AF0020008D0206802213D
:102E70000162D4F8900040F00400C4F89000002FE4
:102E800018BF1AF0040008D0206804210162D4F8A9
:102E9000900040F00200C4F89000D4F8900020B1F7
:102EA0002046FEF7E5FDC4F890B0B4F85E000028B7
:102EB00050D100BF206850E8000F216820F48070D6
:102EC00041E80002002AF5D1206850E8020F2840AE
:102ED000216841E80202002AF6D12020C4F88C00C3
:102EE000C4F874B0C4F870B0206848F20001C4F2AD
:102EF000000188421CBF406810F4000F0AD000BFD8
:102F0000206850E8000F216820F0806041E800024E
:102F1000002AF5D1E06E012819D1C4F86CB000BFC9
:102F2000206850E8000F216820F0100041E80002FE
:102F3000002AF5D12068C16911F0100F1CBF1021C3
:102F40000162B4F85C102046FEF72EFD02E0204638
:102F5000FEF7DAFF002E18BF1AF020007FF45EAFF4
:102F6000B4F85E00F0B1B4F8681088421AD200BF1D
:102F7000206850E8020F216820F0805041E80202EA
:102F8000002AF5D142F60550C0F60000606700BF88
:102F9000206850E8000F216840F0200041E800025E
:102FA000002AF5D101B0BDE8F08F2068816941F0B9
:102FB0000801816101B0BDE8F08F0000F0B581B07B
:102FC0000446E0692168A268D4E904370E6846F631
:102FD000F315CCF6FF752E401A433A4310433043A5
:102FE000086020684168E26821F440511143416063
:102FF0002068A16948F20006C4F20006B0421CBF76
:10300000226A114340F68007C0F2040782684FF23B
:10301000FF43C1F2FF1302EA030241EA02018160A9
:103020002068C16A626A21F00F0141EA0201C162AF
:10303000216842F20045C0F2F40544F20040C4F2B7
:103040000000814218D0B14221D043F60000C4F202
:103050000100814253D10320FFF760F8A0F5403012
:10306000042824D200EB80006FF31F50791C6FF30B
:103070001F5121FA00F01BE00C20FFF74FF8A0F5DC
:1030800040204FEAB001042911D2800806E0FFF782
:103090002DF84FEAB021042909D2800A6FF31F5797
:1030A00000EB80006FF31F5027FA00F000E01020C3
:1030B0002168B14226D0E169B1F5004F0FD100F08F
:1030C0001F010120082900F2B780DFE801F0056444
:1030D0006FB567B5B5B56D00FEF71AF960E000F0A1
:1030E0001F010120082900F2A780DFE801F0058018
:1030F0008BA583A5A5A58900FEF70AF97CE0102021
:10310000B142D8D100F01F010120082900F29480BB
:10311000DFE801F005921092089292920E00FEF7FD
:10312000F7F801E0FEF714F905461DB9002083E029
:103130004FF400456668606A48F2DC71C0F6000131
:1031400031F81020B5FBF2F106EB4603012099425D
:1031500072D3330399426FD8284600210023FDF72C
:10316000EFF8090241EA1061000210EB560041F14C
:10317000000132460023FDF7E3F8A0F540714FF659
:10318000FF42C0F20F02914203D82168C8600020BC
:1031900052E0012050E0FEF7CBF801E0FEF7D8F84E
:1031A00005461DB9002047E04FF400456068616A9C
:1031B00048F2DC72C0F6000232F81110B5FBF1F1F2
:1031C000420802EB4101B1FBF0F0A0F110014FF613
:1031D000EF72914209D84FF6F0710140C0F34200FE
:1031E00008432168C860002026E0012024E0FEF7A3
:1031F0009FF801E0FEF7ACF805461DB900201BE082
:103200004FF400456068616A48F2DC72C0F6000263
:1032100032F81110B5FBF1F101EB5001B1FBF0F008
:10322000A0F110014FF6EF72914204D8216880B2EC
:10323000C860002000E001200121A4F86A10A4F871
:1032400068100021C4E91D1101B0F0BD8165A0F82E
:103250005C20A0F85E2000214167816871B1B1F166
:10326000805F13D0B1F5805F18D10169FF23002979
:1032700008BF40F2FF13A0F8603012E001697F231D
:10328000002908BFFF23A0F860300AE001693F234E
:10329000002908BF7F23A0F8603002E00021A0F8D9
:1032A00060100021C0F890102221C0F88C1000BFDF
:1032B000016851E8021FD0F800C041F001014CE85C
:1032C0000213002BF4D18168436EB3F1005F03D188
:1032D000B0F8683093420AD9B1F5805F04BF016944
:1032E00000290FD042F60551C0F600010EE0B1F5FD
:1032F000805F04BF0169002923D042F6D951C0F68E
:10330000000122E042F65121C0F600014167016947
:1033100061B100BF016851E8001F026841F490717B
:1033200042E80013002BF5D126E000BF016851E808
:10333000001F026841F0200142E80013002BF5D184
:103340001AE042F62531C0F600014167016949B132
:10335000016851E8001F026841F4807142E80013DF
:10336000002BF5D1016851E8021F026841F080513D
:1033700042E80213002BF5D1002070472DE9F043FD
:1033800081B0984616460F4604462068C06938400A
:10339000C01BB0FA80F04009B0423BD1DDF820906C
:1033A00009F101058DB1FDF763FDB9F1000F17D0EB
:1033B000A0EB0800484513D82068016811F0040FFD
:1033C0001CBFC16911F4006F26D12068C069384064
:1033D000C01BB0FA80F04009B042E3D0002040E0CA
:1033E000206850E8000F216820F4D07041E8000206
:1033F000002AF5D1206850E8020F216820F0010072
:1034000041E80202002AF5D12020C4F8880004F126
:103410008C0020E0002024E04FF40061016200BF36
:10342000206850E8000F216820F4D07041E80002C5
:10343000002AF5D1206850E8020F216820F0010031
:1034400041E80202002AF5D12020C4F88800C4F81F
:103450008C0004F1900020210160002084F8840099
:103460000320C0B201B0BDE8F083000040F2085074
:10347000C2F20000FEF7FEBA80B502A005F030F9F6
:10348000FEE700BF55736167654661756C745F4800
:10349000616E646C65722E2E2E0D00000028B8BF80
:1034A000704700F01F014FF0010202FA01F14FEAEC
:1034B00050104EF20012CEF2000242F82010704777
:1034C0004EF60C50CEF200000068C0F302207047A8
:1034D00000F1604C00F00F034EF61452CEF20002E1
:1034E0001A44B0F1FF3FC8BF0CF5644208011070E8
:1034F0007047000000014EF62351CEF20001087023
:10350000704700004EF60C51CEF200010A684FF6EB
:10351000FF031A4060F30A2242F0806040F0FD7021
:103520000860704780B54142084000F0B5FD0138A1
:1035300080BD000080B500F0AFFD013880BD000007
:103540005060C0E900210860704700005060C0E989
:1035500000210860704700005060C0E90021086049
:10356000704700005060C0E900210860704700000B
:103570005060C0E900210860704700005060C0E959
:10358000002108607047000048600160704700003B
:1035900048600160704700004860016070470000AB
:1035A000486001607047000048600160704700009B
:1035B0004860016070470000D0E90010FFF7ECBFE1
:1035C00010B5002448B100F015F8411EB4EB917F0E
:1035D00003D10C2898BF0C200446204610BD0000E3
:1035E00020F00300704700000844013849420840B9
:1035F0007047000008440138494208407047000005
:1036000010B50446084600F01BF961680844043010
:103610006060204600F030F8204610BD10B50C4622
:1036200000F00EF904F110020021904228BF0121A0
:10363000084610BD0838704710B582B0044600F047
:10364000FFF801A96A4600F019FFDDE900212046D4
:1036500000F028FD02B010BD406800F00100704786
:1036600080B500F0EDF8B0FA80F0400980BD0000B0
:10367000406800F00200704710B5044600F062F8A0
:10368000046010BD10B582B00024CDE90044A8B19B
:1036900001A96A4600F008FF019817280BDC01A871
:1036A000694600F081F804463CB1DDE9002120467E
:1036B00001F024FB02E0002400E00024204602B0D8
:1036C00010BD000010B50446FFF7D6FF00F0A0F8CB
:1036D0002046BDE8104000F095B8000010B5044643
:1036E00000F030F800F09AF82046BDE8104000F0F5
:1036F000A1B80000B0B5044600F024F80546FFF775
:10370000ABFF002804BF2046B0BD284600F03CF8BF
:1037100020462946BDE8B040FFF772BFB0B5044669
:10372000FFF7A6FF002804BF2046B0BD204600F0EA
:1037300029F8054600F028F828462146BDE8B040A3
:10374000FFF75EBFB0B5044600F09CF80546204682
:1037500000F076F8011F2846BDE8B04000F080BFB9
:1037600010B50446002C04BF002010BD204600F018
:103770008BF82046FFF7B2FF2046BDE8104000F06E
:1037800081B800000068704710B582B0044600F0B0
:1037900057F801A96A4600F071FEDDE900212046D4
:1037A00001F0ACFA02B010BDF0B581B00C4606468F
:1037B00020684FF0FF3101FA00F0356840F2DC6715
:1037C000C2F2000707EB8502526A10400FD1681C55
:1037D00001FA00F0396A084002BF002001B0F0BDD4
:1037E000FFF7A0FE0546356007EB8500406AFFF74E
:1037F00099FE206007EBC51101EB8000D0F8840032
:1038000001B0F0BD416841F0010141607047000026
:10381000416841F00201416070470000416821F0B9
:103820000201416070470000426802F00302114348
:1038300041607047416821F001014160704700001C
:10384000406820F003007047F0B581B00C46054693
:1038500000F018F8211F00F003FF06466FF0030088
:10386000071B2846FFF7ECFF39183046FFF7DCFF4F
:1038700028462146FFF7D8FF3046FFF723FF3046A2
:1038800001B0F0BD08307047B0B50D460446FFF7F3
:10389000C5FE002808BFB0BD20462946FFF7D4FF6B
:1038A00005462046FFF7E8FE2846FFF7B1FF284609
:1038B000BDE8B040FFF7C0BEB0B50D460446FFF707
:1038C000ADFE002802BF25462846B0BDA5F1040183
:1038D0002046FFF7B9FF0546FFF79AFF2046FFF79E
:1038E000CBFE2046FFF7A8FE2846B0BDB0B50C467B
:1038F0000546FFF793FE002808BFB0BD28462146C5
:10390000FFF7A2FF0446FFF789FF2046FFF7F2FE0C
:10391000BDE8B040FFF790BEFCF762BC00F05CBFB2
:1039200080B540F20400C2F20000006840F22801B5
:10393000C2F20001D1E900230021FCF701FD40F2B1
:103940009C51C2F200010860BDE8804000F006B85A
:10395000FCF74BBC80B5FCF721FC000010B5044619
:10396000002001F09BF82046BDE8104001F094B81B
:1039700070B586460EEB010020F0070CACF1010398
:10398000002073454FF000040BD300241D4600BFF8
:1039900015F80169CC2E18BFACEB030475452B4616
:1039A000F6D214608C4208BF40F2737070BD000004
:1039B000F0B581B016460D4607460698184420F02B
:1039C00007049C4204D9E11A1846CC22FCF7FBFC00
:1039D0004FF0807044F8040C44F8087C44F80C6CF8
:1039E0004FF0123044F8100C4FF0033044F8140C30
:1039F0004FF0023044F8180C4FF0013044F81C0C22
:103A000044F8205C4FF0113044F8240C4FF0103093
:103A100044F8280C4FF0093044F82C0C4FF00830D3
:103A200044F8300C4FF0073044F8340C4FF00630B7
:103A300044F8380C4FF0053044F83C0C4FF004309B
:103A400044F8400D204601B0F0BD0000F0B5D2E9C9
:103A50000C3C634423F007034FF0807C45F2191EB1
:103A6000C0F6000E47F65904C0F600044FF01235B8
:103A70004FF003364FF0023743E9071743E9056576
:103A800043E9034E43F804CC4FF0113C4FF0103E95
:103A90004FF009364FF008354FF007344FF006313C
:103AA0004FF0053743E90F71A3F1340181E870400D
:103AB00043E909C04FF0043043F8400D5360F0BDB6
:103AC0002DE9F04116460D460446BCB3204600F0F1
:103AD0001BFC002802BF40F24D4080B2BDE8F081DF
:103AE000002E04BFE0680543E56002F087FB8046D6
:103AF000264656F8047FBE4217D000BFBB8DE06853
:103B00003D68D7E90C1200F01FF840B1A7F1600042
:103B1000012100F027FE97F82C00400703D4AE42A5
:103B20002F46EBD101E00020E060404602F064FB4C
:103B300000F02AFC002080B2BDE8F08140F24C4049
:103B400080B2BDE8F081000013F0020F06D1DB0760
:103B500018BF10EA01000AD10020704708408842CF
:103B600002BF1160012070474FF0000070471060E5
:103B700001207047B0B588B00C4601AD2A4600F070
:103B800011FA284600F0DCF8284600F0B3F9204688
:103B900000F07EF8284600F005F8FFF7BFFE00F0C1
:103BA00063FA00002DE9F04381B004462078400715
:103BB00044BF01B0BDE8F083A56840F23809C2F205
:103BC0000009D9F8001048F6C960C0F6000088471F
:103BD0006168D9F8002014A09047206985421CD262
:103BE00005270FF24C0800BF2868061F2078C00781
:103BF00002D016F001000AD02046314600F020FA2B
:103C000028B1D9F80020404631469047013F002FA7
:103C100003D0206904358542E6D3D9F8001006A008
:103C200001B0BDE8F04308472530387800000000B7
:103C300020253038780D0A000D0A75736167653AE2
:103C40002061646472326C696E65202D65203C2AA7
:103C50002E6178663E202D61202D66203C64756DB6
:103C6000702063616C6C20737461636B3E000000B4
:103C700083B080B581B00DF10C0C8CE80E0003A967
:103C8000009104F0BBF801B0BDE8804003B070477C
:103C9000F0B585B0044640F23806C2F2000631683D
:103CA00048F64F70C0F6000088473568D4E9002018
:103CB000D4E902130FF23C0C0FA7CDE90007CDE9C0
:103CC000021C04930DA718A118A33846A84736680C
:103CD000D4E90420D4E9061315A516A4CDE90004FF
:103CE000CDE90215049314A114A33846B04705B0DA
:103CF000F0BD00BF52332000523220002020257337
:103D00003A2025303878202025733A20253038781D
:103D1000202025733A2025303878202025733A203A
:103D2000253038780D0A0000523020005231200032
:103D30005053520050432000523132004C52200068
:103D4000F0B581B0044640F23806C2F20006316890
:103D500048F68660C0F60000884720781EA720A598
:103D600010F0010F294618BF3946326848F69270A4
:103D7000C0F600009047207810F0020F294618BFC7
:103D80003946326848F6A470C0F6000090472078A3
:103D900010F0040F18BF3D46326813A02946904723
:103DA0006168326815A09047A168326818A09047F2
:103DB000E16832681BA09047216932681EA09047D5
:103DC0006169326821A090473268A16924A001B0DE
:103DD000BDE8F040104700BF5452554500000000B8
:103DE00046414C5345000000202053544B204F5671
:103DF00052463A202025730D0A000000202050432F
:103E00003A2020202020202020253038780D0A005C
:103E1000202053503A2020202020202020253038F8
:103E2000780D0A00202053544B2053544152543AE9
:103E300020253038780D0A00202053544B204C495F
:103E40004D49543A20253038780D0A002020434F40
:103E5000442053544152543A20253038780D0A00FA
:103E60002020434F44204C494D49543A20253038B6
:103E7000780D0A002DE9F04381B00446A66840F2AF
:103E80003808C2F20008D8F800100DA08847206951
:103E9000864211D800270FF2400900BFF1190D46E4
:103EA00055F8042BD8F8003048469847242F03D003
:103EB000043720698542F1D901B0BDE8F08300BF25
:103EC0000D0A5441534B20535441434B2044554D0C
:103ED000503A0D0A000000002020616464723A200C
:103EE000253038782020646174613A202530387894
:103EF0000D0A000070B504462078800758BF70BDD9
:103F000040F2A050C2F20000066840F23805C2F24A
:103F10000005296848F60C70C0F6000088472A683A
:103F200006F10E010BA09047E1682A680EA09047A9
:103F3000B16B2A6811A0904721692A6814A09047A4
:103F40002078400704D42046BDE87040FFF792BFB8
:103F500070BD00BF20205441534B204E414D453A87
:103F6000202025730D0A0000202053544B2042418D
:103F700053453A20202025780D0A00002020535474
:103F80004B2053495A453A20202025780D0A00003D
:103F9000202053544B204C494D49543A2020257839
:103FA0000D0A0000F0B581B014460D460646E869DA
:103FB00000F056F800F00100217801F0FC0141EA20
:103FC0000007304600F048F8022101EA400038437B
:103FD0002070A86905F12001C4E9010140F2000048
:103FE000C0F6000048F6D871C0F60001C4E905012A
:103FF0002078800709D447F6E830C2F20000E0607C
:1040000047F6E870C2F2000008E040F2A050C2F2A9
:1040100000000068C16AE160806B08442061D4E957
:1040200002120023814288BF01239800914238BFC9
:104030000420217801F0FB010843207001B0F0BD9D
:104040000246536900208B4288BF704792698A42BA
:1040500028BF012070470000C0F3800070470000B7
:10406000C0F300607047000080B502F0EFF902F085
:10407000C7F800BFFEE7000080B582B0019040F2B3
:104080000850C2F2000001A901224FF0FF33FDF7F2
:1040900065FF012002B080BD80B502F0ABF8C0F131
:1040A000200080BD10B540F2DC6CC2F2000C0CEBBD
:1040B000C11303EB820EDEF884300CF11004C0E96A
:1040C0000234D860CEF88400012000FA01F3DCF855
:1040D00020402343CCF8203090400CEB81014A6A09
:1040E0001043486210BD000080B500BF01F064FCC1
:1040F000FCE7000080B584B00020039048F2F8701F
:10410000C0F600000068029048F2F470C0F60000AB
:10411000006801900920009040F2A850C2F200000F
:1041200004A144F2E902C0F60002002303F0FCF807
:1041300004B080BD69646C650000000040F2A851C5
:10414000C2F20001401AB0FA80F040097047000046
:1041500040F2C060C2F200000078002818BF0120C1
:104160007047000041F2BC30C2F200000078002825
:1041700018BF01207047000040F2A051C2F20001B8
:104180000968081AB0FA80F04009704700780238D0
:10419000B0FA80F04009704700780238B0FA80F039
:1041A0004009704700780238B0FA80F04009704743
:1041B00000780138B0FA80F0400970470078013883
:1041C000B0FA80F04009704700780138B0FA80F00A
:1041D0004009704700780138B0FA80F04009704714
:1041E00000780138B0FA80F0400970470078013853
:1041F000B0FA80F04009704700210170704700005C
:10420000002101707047000000210170704700001C
:10421000002101707047000000210170704700000C
:1042200000210170704700000221017070470000FA
:1042300002210170704700000221017070470000E8
:1042400001210170704700000121017070470000DA
:1042500001210170704700000121017070470000CA
:1042600001210170704700000121017070470000BA
:10427000012101707047000000214180704700005B
:1042800000214180704700000021418070470000FC
:1042900000214180704700000021418070470000EC
:1042A00000214180704700000021418070470000DC
:1042B0004DF6D2214180704743F6EE314180704780
:1042C0004DF6D3214180704746F6EE31418070476C
:1042D0004DF6D6214180704749F6EE314180704756
:1042E0004AF6EE31418070474DF6D7214180704744
:1042F0004DF6D8214180704740884DF6D221401AB2
:10430000B0FA80F040097047408843F6EE31401A19
:10431000B0FA80F04009704740884DF6D321401A2A
:10432000B0FA80F040097047408846F6EE31401AF6
:10433000B0FA80F04009704740884DF6D621401A07
:10434000B0FA80F040097047408849F6EE31401AD3
:10435000B0FA80F04009704740884AF6EE31401AC2
:10436000B0FA80F04009704740884DF6D721401AD6
:10437000B0FA80F04009704740884DF6D821401AC5
:10438000B0FA80F04009704710B502F055F838B126
:10439000FFF7DEFE002818BF10BDFFF7E3FE00B1F7
:1043A00010BD01F02BFF044600F0F8FB41F2603134
:1043B000C2F200010860FFF7DFFE002808BFFFF728
:1043C000ABFA2046BDE8104001F016BFB0B584B08E
:1043D000FBF7D0FEFCF760FDFEF7D8F947F6DD509D
:1043E000C0F6000001F0CCFFFEF79EF8FEF7A6F83D
:1043F00040F20850C2F2000047F6E031C2F200017C
:104400000122FDF74FFDFEF729F8252003210222A6
:10441000FCF7D2FD00256FF0040000210022FCF71C
:10442000CBFD01F0B3FF044600F03AFB0CB100BF36
:10443000FEE74FF4806040F20811C2F2000104224E
:10444000CDE90021CDE9020540F27000C2F2000082
:1044500007A14FF20102C0F60302002302F064FF3D
:1044600008B100BFFEE702F043F800BFFEE700BF5F
:104470006170705F656E74727900000070B51446EB
:104480000D4606467F2E02D8B108002008E03046CF
:10449000FFF750F8411F46FA01F181F0200106387C
:1044A0002860216070BD000070B514460D460646B8
:1044B000802E08D33046FFF73DF80538012101FA78
:1044C00000F03044461E304629462246BDE8704082
:1044D000FFF7D4BF70B540F2DC66C2F200060024DC
:1044E000C6E90044C6E9024406F11005C6E90655CE
:1044F00006F120006421FBF76DFF06F1840004E063
:1045000080300134182C08BF70BD002140F82150C4
:1045100001312029FAD1F3E780B5FFF7DBFF002056
:1045200080BD000040F2DC6CC2F2000CDCF8002020
:10453000012ABCBF00207047DCF800204FF00003C8
:104540000CEB83014968814204BF0120704703F1ED
:1045500001039342A4BF00207047F1E740F2DC6002
:10456000C2F2000000680338B0FA80F040097047DA
:1045700040F2DC61C2F200010A68531C0B6001EBDF
:10458000820148607047000080B540F2DC6CC2F2E6
:10459000000CDCF80030012B0DDBDCF800E0002221
:1045A0000CEB82014968814206D0013272457346A4
:1045B000F6DB734600E00022581E82421EBF0CF15B
:1045C000040151F8203041F82230CCF8000080BDC1
:1045D000016191F8292002750122027318306831B7
:1045E00001F0A6BFB0B50C460546FFF7F1FF281D48
:1045F00000F038F8014694F82900884284BF20462C
:1046000003F03EFAB0BD0000B0B505462C6905F1D7
:10461000180001F0A9FF00202861287394F8701099
:104620000A290CD1297D94F82900884208BFB0BD21
:10463000204603F025FA4FF00A002875B0BD204649
:1046400003F01EFA0A2084F87000B0BD10B50446CD
:10465000FFF7DAFF201D0421BDE8104000F0A6B8E6
:104660000844704710B5044601F096FF002812BFB9
:104670000A20206810F8370C10BD00000068603870
:104680007047000001F088BFB0B50D4604462968A8
:104690008D4208D094F8290011F8372C904202D3AB
:1046A00009688D42F8D104F1600001F04DFF6567A3
:1046B0002046BDE8B04001F0F3BA000010B5044652
:1046C00004F1600001F054FF616F2046BDE8104026
:1046D000FFF7DABF10B5044604F1600001F048FFAF
:1046E000002060672046BDE8104001F0BDBA000020
:1046F00001F074BF01F072BF411E032908D80020E9
:10470000DFE801F008020A0E40F2B34080B27047C1
:1047100040F2B24080B2704740F2B44080B270477D
:1047200040F2B54080B27047F0B581B01C461546E6
:104730000F46064600F0BEFA002086F878003046A4
:104740003946FFF7A1FF05EA0400013004BF01B0BC
:10475000F0BD30462A46234601B0BDE8F04001F0E6
:10476000BBBA0000B0B50D46044601F053FA20B1C3
:1047700084F878502046FFF7ADFF204601F05CFA40
:1047800000281CBF204601F0B1FA204601F060FA73
:10479000002818BFB0BD2046BDE8B04000F0AAB95F
:1047A000002A18BF00F002B800F012B870B50C462D
:1047B00005462868854208BF70BD00BF50F8606993
:1047C0002146FFF7CFFFB5423046F7D170BD00005C
:1047D00000686038FFF7C6BF80B588B04EF6245039
:1047E000CEF20000016801914168029101690391D4
:1047F0004169049181680591C168069180690790BB
:1048000001A800F003F808B080BD0000B0B5044670
:1048100040F23805C2F20005296848F6FE20C0F6CD
:1048200000008847207C800702D5296878A0884747
:10483000206910F0804F00F0B3802079C0B3C0072A
:1048400002D029687EA088472079800705D529688D
:1048500048F61F40C0F6000088472079000705D5BC
:10486000296848F6DA50C0F6000088472079C0066B
:1048700005D5296848F6B050C0F600008847207971
:1048800010F0200F06D0296848F60650C0F6000048
:104890008847207941B2B1F1FF3F09DC10F00300F5
:1048A00006D0A1682A6848F64F60C0F6000090471D
:1048B0006079E8B3C00705D0296848F6A840C0F67B
:1048C000000088476079800705D5296848F6504080
:1048D000C0F6000088476079400705D5296848F68A
:1048E0007B40C0F6000088476079000702D5296840
:1048F00061A088476079C00605D5296848F69450BC
:10490000C0F6000088476079800605D5296848F61A
:10491000D240C0F600008847607900F0820082280B
:1049200006D1E1682A6848F62660C0F60000904784
:10493000E088A0B3C00705D0296848F64850C0F603
:1049400000008847A079800705D5296848F692209D
:10495000C0F600008847A079400705D5296848F6C9
:104960006730C0F600008847A079000705D52968A0
:1049700048F66D50C0F600008847E079C00705D0C2
:10498000296848F60660C0F600008847E07980078D
:1049900005D5296848F6BB20C0F600008847206985
:1049A000B0F1FF3F2ADC6069002808BFB0BD207D60
:1049B000C00705D0296848F64130C0F60000884796
:1049C000207D800705D5296848F6F630C0F600003E
:1049D0008847207D400705D5296848F68930C0F60C
:1049E00000008847207D000705D5296848F6AB30D0
:1049F000C0F600008847207DC00600D4B0BD2968FD
:104A000048F6D030C0F60000BDE8B040084700BF0F
:104A100048617264206661756C74206973206361FB
:104A200075736564206279206661696C65642076BF
:104A30006563746F722066657463680D0A00000018
:104A40004D656D6F7279206D616E6167656D656E24
:104A500074206661756C743A20696E737472756344
:104A600074696F6E206163636573732076696F6C20
:104A70006174696F6E0D0A00427573206661756C12
:104A8000743A20756E737461636B696E672065722A
:104A9000726F720D0A000000FDF752BEFEF72ABDCC
:104AA00070B50EA003F09AF9002540F20806C2F294
:104AB00000060CA456F82510204603F08FF90135A6
:104AC000082DF7D108A4204603F00AFE204603F083
:104AD00007FE06A0BDE8704003F080B91B5B3936C5
:104AE0006D000000257300000D0000001B5B3937CE
:104AF0006D00000090F8291040F2A052C2F20002AE
:104B0000126892F82920914218BF00F003B800F013
:104B10001BB8000070B5044694F8296041F2643077
:104B2000C2F2000000EBC605284601F03BFD00285C
:104B30001CBF304600F09CF804F160002946BDE837
:104B4000704001F0F9BC000070B5044694F829608B
:104B500041F26430C2F2000000EBC605284601F0C5
:104B600021FD00281CBF304600F082F804F16000EF
:104B70002946BDE8704001F0EBBC000010B541F2E1
:104B80006431C2F2000101EBC004204601F00AFDCD
:104B9000002812BF00202068603810BD41F2643048
:104BA000C2F2000090F8541050F83100603870479D
:104BB000B0B541F26434C2F200040A2084F8540013
:104BC000002500BF601901F00DFD0835502DF9D109
:104BD00000202065B0BD000041F26431C2F2000146
:104BE00001EBC00251F830000068801AB0FA80F082
:104BF0004009704710B541F26431C2F2000101EB87
:104C0000C004204601F0CEFC002818BF10BD20686B
:104C10002146BDE8104001F0EDBC000010B541F2A6
:104C20006431C2F20001086D08B1002408E054317B
:104C30000024202252FA84F451F8040B0028F9D001
:104C400001F0D8FA2044C0B210BD00001F218143FA
:104C5000012202FA01F1C0F3421041F26432C2F2C1
:104C6000000202EB8000026D1143016570470000F5
:104C700010B50446FFF7EAFF41F26430C2F20000CB
:104C800090F85410A14288BF80F8544010BD000035
:104C90001F218143012202FA01F1C0F3421041F2C7
:104CA0006432C2F2000202EB8000026D22EA0101CE
:104CB00001657047B0B50546FFF740FA00B1B0BDD9
:104CC00095F8294005F1600001F056FC41F2643589
:104CD000C2F2000505EBC40001F064FC00281CBF13
:104CE0002046FFF7D5FF95F85400844218BFB0BDA9
:104CF000FFF794FF85F85400B0BD000010B5D0E96F
:104D000002E3CEF80C30C3F808E040F2DC6CC2F2EB
:104D1000000C0CEBC11303EB820353F8844F844265
:104D200005D1C3F800E00CF11000864500D010BD9D
:104D3000012000FA02F20CEB81035C6A24EA020211
:104D40005A62002A18BF10BD00FA01F0DCF82010EA
:104D500021EA0000CCF8200010BD0000B0F806C029
:104D6000D0E9033202FB0C30FBF71BBBB0B5144695
:104D70000546A888D5E9033202FB003308461946E8
:104D8000FBF70FFB002C1CBF28692060B0BD0000A2
:104D9000416982880132B2FBF1F303FB112181806A
:104DA00081680139816070474169C2880132B2FB74
:104DB000F1F303FB1121C1808168013181607047EB
:104DC00070B5054601F01AFA04462846FFF7D6FEEC
:104DD000064656B13046FFF7B1F930B92846FFF71D
:104DE000FBFE10B9FFF7BEF920B12046BDE87040C8
:104DF00001F002BAD6F8800018B10138C6F8800078
:104E0000F3D140F2A050C2F20000006890F82900EF
:104E1000FFF7F0FE2846FFF7B1FE40F23C01C2F278
:104E200000010968C26F002A18BF1146C0F880103F
:104E3000204601F0E1F9BDE87040FFF7A5BA000097
:104E4000F0B581B00C46064676B33046FFF784FADB
:104E500060B101F0D3F90546F089B189814208D1EA
:104E6000284601F0C9F94FF4E1601AE040F24D40E4
:104E700017E0371D3846FFF705FC38B1B08901301F
:104E8000B081284601F0B8F900200AE03846012137
:104E90002246FFF785FC284601F0AEF9FFF774FAC9
:104EA000002080B201B0F0BD40F24C40F9E70000B4
:104EB000002070472DE9F04740F25004C2F2000490
:104EC000D4E9000147F6C039C2F20009D9E900234C
:104ED000101A73EB010038BFBDE8F08701F0B6FA95
:104EE000204650F8085F854228D004F1080A4FF0A8
:104EF000030800BF28692F4657F80C1FD9E9002383
:104F0000511A73EB000019D3A5F10C042E6820464A
:104F100000F0FAFFA88C022808D1D5E90701C7E9FB
:104F20000001204600F0B2FF02E000BF85F82680B5
:104F300055E90210884756453546DBD101F0AEFAF7
:104F4000BDE8F08702F008BCD0E9000102F0CEBB5A
:104F5000D0E90021104601F055B9000001F066B912
:104F600080B584B0D0E900C18268D0E9043E008BEE
:104F7000CDE9003E0290604601F088F904B080BDA2
:104F8000D0E90021104601F0F3B90000D0E900217A
:104F9000104601F0F1B90000D0E9003182681846EE
:104FA00000F0E8BFD0E90021104600F0FBBF000090
:104FB00001F012B801F036B801F05AB880B501F02E
:104FC0006DF840F69901012808BF0021084680BD10
:104FD00080B501F071F840F69901012808BF002161
:104FE000084680BDD0E90021104601F073B80000EA
:104FF00010B5044694E8070001F086F8E06010BDA3
:105000000179006801F0B2B810B5044694E80700D1
:1050100001F0CAF8E06010BDD0E90021104602F0AE
:10502000CDBD00000178012982BF40F69A0080B210
:1050300070474068016841F0010140F26802C2F225
:1050400000021160406840F0010050604FF0000025
:1050500080B27047F0B585B004462078022817D09A
:10506000012813D0E8B9A068B0B36668002740F201
:105070000005C2F2000500BFF05D2946FEF7FCFF07
:105080000137A0688742F7D3002542E0002540E0C1
:10509000A08910F0020F07D1C0071FD140F69B0571
:1050A00037E040F69A0534E0FBF7EEFDA06878B1F2
:1050B00020690568002600BF60688259A91930443C
:1050C00043680120FBF7A4FD0836A0688642F3D3AD
:1050D000FBF790FD00251CE000251AE00025049553
:1050E000FBF7D2FDD4E901010122CB0A40F2FF77A0
:1050F000394218BF02EBD123039300F17840C00A74
:1051000002900220019001A804A9FBF725FDFBF7FE
:1051100071FDA8B205B0F0BD70B50D46064601F0B0
:105120008BF94FF4FA74002800F04F81701E4FF491
:10513000FA74472800F20081DFE810F048004A00C6
:105140004D005000540058005C006000640068008E
:105150006C007000740078007C008100850089007C
:105160008D009100950099009E00A200A600AA0063
:10517000AE00B200B600BA00BE00C200C600CA004F
:10518000CE00D200D600DA00DE00E200E600EA003F
:10519000EE00F200F600FA00FE00FE00FE00FE0047
:1051A000FE00FE00FE00FE000101470105010901AD
:1051B0000D011101150119011D01220126012B010B
:1051C0002F01330137013B013F0143010024FCE083
:1051D00000F006FBF8E000F005FBF5E0284600F0E3
:1051E0001BFBF1E0284600F03BFBEDE0284600F019
:1051F00077FBE9E0284600F075FBE5E02846FFF77D
:10520000A3FEE1E02846FFF79DFEDDE0284600F022
:1052100001FBD9E0284600F0D7FAD5E0284600F097
:10522000CFFAD1E000F06CFB0024CEE02846FFF777
:10523000F3FEC9E0284600F057FB0024C5E000F06B
:1052400059FB0024C1E0284600F070FABCE0284673
:1052500000F0A6FAB8E0284600F06EFAB4E028465E
:1052600000F078FAB0E0284600F08CFAACE028466E
:1052700000F07EFA0024A8E0284600F07DFAA3E0C2
:10528000284600F077FA9FE0284600F08BFA9BE072
:10529000284600F089FA97E0284600F087FA93E064
:1052A000284600F085FA8FE0284600F087FA8BE068
:1052B000284600F02DFA87E0284600F023FA83E024
:1052C000284600F02DFA7FE0284600F08DFA7BE0BA
:1052D000284600F08DFA77E0284600F08FFA73E058
:1052E000284600F08DFA6FE0284600F08FFA6BE058
:1052F000284600F08DFA67E02846FFF729FE63E0B4
:105300002846FFF72BFE5FE02846FFF729FE5BE00B
:105310002846FFF735FE57E02846FFF737FE53E0F3
:10532000284600F053FA4FE0284600F051FA4BE0CF
:10533000284600F04FFA47E040F6990445E0284639
:10534000FFF788FE40E02846FFF76CFE3CE0284669
:10535000FFF722FE38E02846FFF724FE34E0284617
:10536000FFF726FE30E02846FFF724FE2CE0284613
:10537000FFF746FE28E02846FFF746FE002424E01B
:105380002846FFF72FFE1FE02846FFF731FE0024D6
:105390001BE02846FFF710FE16E02846FFF70EFE3A
:1053A00012E02846FFF714FE0EE0284600F06EFAE1
:1053B0000AE0284600F07EFA06E0284600F08CFA63
:1053C00002E0284600F08AFA044600F017FF05467E
:1053D00040F2A050C2F20000006801680C62012196
:1053E0004172FEF799FA284600F006FFFEE700003A
:1053F000B0B50C46054601F01FF8002802BF4FF477
:10540000FA7080B2B0BDA5F10101472900F22581F3
:105410004FF4FA70DFE811F04F0148004C005000E3
:1054200055005A005F00640069006E007300780048
:105430007D008000850089008C00910096009B0013
:10544000A000A500A900AE00B300B800BD00C200D6
:10545000C700CC00D100D600DB00E000E500EA0088
:10546000EF00F400F900FE00030108010D01120134
:1054700017011C012101210121012101210121012B
:10548000210121012501230123012A012F013401DA
:1054900039013E01430147014C01520157015C01B2
:1054A000610166016B017001BDE8B04000F098B980
:1054B000BDE8B04000F096B92046BDE8B04000F02D
:1054C000ABB92046BDE8B04000F0CAB92046BDE8FF
:1054D000B04000F005BA2046BDE8B04000F002BA86
:1054E0002046BDE8B040FFF72FBD2046BDE8B040E4
:1054F000FFF728BD2046BDE8B04000F08BB920463C
:10550000BDE8B04000F060B92046BDE8B04000F012
:1055100057B900F0F5F9CEE02046BDE8B040FFF7FE
:105520007BBD204600F0E0F9C5E000F0E3F9C2E001
:105530002046BDE8B04000F0F9B82046BDE8B040D4
:1055400000F02EB92046BDE8B04000F0F5B8204686
:10555000BDE8B04000F0FEB82046BDE8B04000F025
:1055600011B9204600F004F9A5E02046BDE8B0409E
:1055700000F002B92046BDE8B04000F0FBB820467C
:10558000BDE8B04000F00EB92046BDE8B04000F0E4
:105590000BB92046BDE8B04000F008B92046BDE890
:1055A000B04000F005B92046BDE8B04000F006B9B3
:1055B0002046BDE8B04000F0ABB82046BDE8B040A2
:1055C00000F0A0B82046BDE8B04000F0A9B82046E1
:1055D000BDE8B04000F008B92046BDE8B04000F09A
:1055E00007B92046BDE8B04000F008B92046BDE844
:1055F000B04000F005B92046BDE8B04000F006B963
:105600002046BDE8B04000F003B92046BDE8B040F8
:10561000FFF79EBC2046BDE8B040FFF79FBC204688
:10562000BDE8B040FFF79CBC2046BDE8B040FFF7A6
:10563000A7BC2046BDE8B040FFF7A8BC2046BDE8A7
:10564000B04000F0C3B82046BDE8B04000F0C0B89C
:105650002046BDE8B04000F0BDB840F6990080B2E9
:10566000B0BD2046BDE8B040FFF7F4BC2046BDE821
:10567000B040FFF791BC2046BDE8B040FFF792BCB8
:105680002046BDE8B040FFF793BC2046BDE8B040DF
:10569000FFF790BC2046BDE8B040FFF7B1BC204604
:1056A000FFF7B2FC07E02046BDE8B040FFF79ABC28
:1056B0002046FFF79DFC002080B2B0BD2046BDE82B
:1056C000B040FFF779BC2046BDE8B040FFF776BC9C
:1056D0002046BDE8B040FFF77BBC2046BDE8B040A7
:1056E00000F0D4B82046BDE8B04000F0E3B8204652
:1056F000BDE8B04000F0F0B82046BDE8B04000F092
:10570000EDB80000D0E90021104600F07FBF000096
:10571000D0E900C1D0E90223604600F0CBBF000011
:10572000D0E90021104600F09BBF0000D0E9002125
:10573000104601F09BB8000010B50446206801F047
:1057400039F860600021002808BF40F22231084685
:1057500010BD000010B50446D4E9000100F0ECFFD4
:10576000A0600021002808BF40F22231084610BD89
:1057700001F06AB801F03EB8D0E90021104601F00E
:10578000C7B8000010B50446D4E9000101F01AF9C9
:10579000A0600021002808BF40F22231084610BD59
:1057A00001F0E6B801F062B901F082B901F0C0B9C8
:1057B0000168D0E90223084601F0C0B901F044BAFB
:1057C0000179006802F05CB902F0C4B901F0BEBB17
:1057D00001F0E0BB0168D0E90223084601F000BCFB
:1057E00000F034BE00F05ABE8188006801F076BC3B
:1057F000C2888188006801F075BC000001F08ABC95
:105800000168D0E90223084601F0BABC01F014BDDA
:1058100001F016BD02F0FAB9F0B587B004460020D9
:10582000069040F2C460C2F2000006A900F0EEFE4D
:1058300008B107B0F0BD94E80F0094F810C0D4E9A7
:1058400005E5E469069E4FF48067CDE900CE0DF1D1
:10585000080C8CE8E000059401F0A8FE07B0F0BD4C
:10586000B0B584B0D0E900C1D0E9022390F810E0CF
:10587000D0E905404FF48065CDE900E4CDE9025060
:10588000604601F02BFE04B0B0BD0000B0B584B09E
:10589000D0E900C1D0E9022390F810E0D0E9054535
:1058A000C069CDE900E4CDE90250604601F03CFD5D
:1058B00004B0B0BD10B584B0D0E900C1D0E9022376
:1058C00090F810E0D0E90540CDE900E40290604690
:1058D00001F0B4FD04B010BD01F082BF01F0BCBF07
:1058E00002F086B802F02AB810B5044601F0EAFECC
:1058F000206010BD45F69520C0F6000002F0D6B934
:1059000002F0F2B9B0B50446FEF718FC00281EBF3D
:1059100040F26D7080B2B0BD00F070FC054604F13D
:10592000680000F045FE10B9204600F079F82046E6
:1059300000F07CF900281CBF2046FFF7BBF9204689
:1059400000F080F900281CBF204600F0CFF9204667
:1059500000F066F900281CBF2046FEF7BBFE04F1EC
:10596000440000F00DFE204600F06AF8204600F0EA
:1059700093F9284600F040FCFEF706FD4FF00000CA
:1059800080B2B0BD002001F02BBF000010B504466E
:10599000606840B1216B40F2C460C2F2000000F0C8
:1059A0005FFE00206060E06A00F04EFF2046BDE828
:1059B000104000F049BF0000F0B581B000F01EFCBF
:1059C000044640F23006C2F200063068B0420AD007
:1059D000054655F83C7900F0D3FD2846FFF7D6FF81
:1059E000B7423846F4D1204601B0BDE8F04000F09F
:1059F00003BC000070B5044654F8686F0A25B44231
:105A00000BD000BFA6F11400FEF72CFEE9B28842CD
:105A100038BF05463668B442F4D1E8B270BD000024
:105A2000B0B5044654F8680F844208BFB0BD00BF4B
:105A300050F81859FEF70AFEAC422846F8D1B0BD1E
:105A4000B0B5044604F10A052846FEF7E9FB04F167
:105A50003C0000F0CBFD04F1440000F0C7FD04F170
:105A6000580000F0C3FD04F1600000F0BFFD04F138
:105A7000680000F0BBFD0A2084F87000002084F864
:105A800078006067C4E9210020812846BDE8B04065
:105A9000FEF70ABC10B582B00446002C6DD004F1AC
:105AA0000E0137A002F09AF96068002814BF39A0EF
:105AB0003EA002F015FE207A00280CBF48A041A0AD
:105AC00002F00EFE01F0FEFDA0420AD094F928007B
:105AD000072808D848F21071C0F6000151F82010CC
