:020000040800F2
:10000000981500204D0100080D19000895130008EF
:1000100009190008650400083520000800000000E8
:10002000000000000000000000000000770200084F
:100030006904000800000000E50100087D1A0008BE
:1000400067010008670100086701000867010008F0
:1000500067010008670100086701000867010008E0
:1000600067010008670100086701000867010008D0
:1000700067010008670100086701000867010008C0
:1000800067010008670100086701000867010008B0
:100090000000000067010008670100086701000810
:1000A0006701000867010008670100086701000890
:1000B0006701000867010008670100086701000880
:1000C0006701000867010008670100086701000870
:1000D0006701000867010008670100086701000860
:1000E0006701000867010008670100086701000850
:1000F0006701000800000000000000006701000820
:10010000670100086701000867010008670100082F
:10011000670100086701000867010008670100081F
:10012000670100086701000867010008670100080F
:100130006701000867010008DFF80CD000F062F9E1
:1001400000480047CD290008981500200648804740
:1001500006480047FEE7FEE7FEE7FEE7FEE7FEE7AC
:10016000FEE7FEE7FEE7FEE7111B00083901000885
:1001700072B6704762B67047EFF3108072B6704780
:1001800080F310887047B0FA80F0704772B64EF670
:100190002250CEF2000040F2FF01C0F200010170D7
:1001A00054480068006880F3088840F27430C2F256
:1001B000000041F21811C2F200010A68026000203A
:1001C00080F309884C484FF08051016062B6704757
:1001D00049484FF080510160704747484FF08051C7
:1001E0000160704772B6EFF3098060B1203880E893
:1001F000F00F424909684A6812B10A7A02B101E077
:10020000086000E048603D483D490A680260506867
:1002100000B105E0EFF3148020F00100106821E048
:10022000507A60B14FF000005072107A18B14FF060
:100230000000107203E04FF001001072FFE7107A27
:1002400040B1FFE7EFF3148020F0010080F3148841
:10025000506807E0EFF3148040F0010080F3148849
:100260001068FFE790E8F00F203080F309884EF027
:10027000040E62B6704772B6EFF30983203B83E841
:10028000F00F1E4A1268546804B118E0136000B5FC
:1002900003F08AF85DF804EB1849096809680862F8
:1002A0001649174A13680B60196891E8F00F20315E
:1002B00081F3098808604EF0040E62B6704713603F
:1002C0004FF00103537200B502F04CF95DF804EBF6
:1002D00000B5FFF77DFF5DF804EB08490968096880
:1002E00091E8F00F203181F309884EF0040E62B6D8
:1002F0007047000008ED00E004ED00E0740300200A
:10030000181100202DE9F05F0546002092469B461B
:1003100088460646814640241BE02846414647461B
:10032000224600F05FF853465A46C01A914110D356
:1003300011461846224600F046F82D1A67EB0108D0
:100340004F4622460120002100F03DF817EB00093E
:100350004E41201EA4F10104DFDC484631462A4606
:100360004346BDE8F09F40EA01039B0703D009E044
:1003700008C9121F08C0042AFAD203E011F8013B91
:1003800000F8013B521EF9D27047D2B201E000F8EA
:10039000012B491EFBD270470022F6E710B5134629
:1003A0000A4604461946FFF7F0FF204610BD10B577
:1003B000044604E00B7800F8013B03B1491C521ECF
:1003C000F8D2204610BD202A04DB203A00FA02F1C0
:1003D000002070479140C2F1200320FA03F3194333
:1003E00090407047202A04DB203A21FA02F00021D5
:1003F000704721FA02F3D040C2F120029140084335
:1004000019467047064C074D06E0E06840F00103CE
:1004100094E8070098471034AC42F6D3FFF790FEFB
:10042000085200084852000830B58C1810F8012B0B
:1004300012F00F0301D110F8013B120906D110F898
:10044000012B03E010F8015B01F8015B5B1EF9D1A1
:1004500001E001F8013B521EFBD1A142E6D300208E
:1004600030BD0000FEE7000070470000EFF3108091
:1004700072B600BFFEE700002DE9F04F81B00E68B4
:10048000002E00F0D18040F60002C5F6000202F115
:10049000704290424FF0070208BF022200924FF0D4
:1004A000010E00244FF0030C40F6040BC5F6000BC0
:1004B00000224FF0010A00BFAAF101090EFA09F368
:1004C00016EA030800F0A5804E6806F00306013E18
:1004D000012E12D80CFA02F6856825EA0606CD68C8
:1004E00095402E438660466826EA03034E68C6F3AD
:1004F000001606FA09F6334343604B6803F0030322
:10050000032B08D00CFA02F3C66826EA03038E68B0
:1005100096403343C3604B6803F00303022B12D1B0
:1005200004F01C030F2505FA03F64FF6FC75C7F619
:10053000FF7505EA590505442F6AB7430E6906FAA7
:1005400003F33B432B620CFA02F3076827EA030329
:100550004F6807F0030797403B4303608B799B0785
:1005600057D004F00C0E072303FA0EF34FEA990656
:100570000825C4F2010555F8265025EA0303B0F119
:10058000904F08D040F20045C4F60005A842009DF7
:1005900008BF012500E0002505FA0EF73B430827B8
:1005A000C4F2010747F8263040F60003C5F6000301
:1005B0001E46336823EA08034F6817F4801F18BFEC
:1005C00043EA08033360DBF8003023EA08034F688E
:1005D00017F4001F18BF43EA0803CBF80030DBF81C
:1005E0007C3023EA08034F6817F4803F18BF43EAC2
:1005F0000803CBF87C30DBF8803023EA08034F682F
:1006000017F4003F18BF43EA0803CBF880304FF0DF
:10061000010E0E6836FA0AF304F1040402F1020234
:100620000AF1010A7FF448AF01B0BDE8F08F000085
:1006300041F29410C2F200000068704740F240009E
:10064000C2F20000007841F29411C2F200010A687F
:10065000104408607047000080B5032000F050F897
:1006600000F0D8F940F20401C2F2000108600F2046
:1006700000F00AF800281CBF012080BD00F02EF811
:100680004FF0000080BD0000B0B5044640F24005C8
:10069000C2F200052878002802BF01252846B0BD17
:1006A00000F0B8F929784FF47A72B2FBF1F1B0FB9F
:1006B000F1F000F0EBFC4FF001050F2C0CD858B90D
:1006C00000254FF0FF302146002200F009F840F2EB
:1006D0004400C2F2000004602846B0BD704700002C
:1006E00070B514460D46064601F0A6FC2946224682
:1006F00001F00EF901463046BDE8704001F0A4BC9F
:1007000001F0BCBC40F20040C5F60000006800F4F7
:10071000C060704740F20040C5F60000016841F437
:100720008071016070470000F0B581B00446A07888
:10073000C00740F20C06C5F6000637D0FFF7EAFF07
:10074000FFF776FF054600BFD6F8F40310F4807F6C
:1007500006D1FFF76DFF401B0228F5D9032526E0DF
:1007600000F08EFE616B88421DD0D6F8845000F0F8
:1007700057FE25F4407700F099FFC6F8847015F015
:10078000020F10D0FFF754FF054641F2883700BF33
:1007900000F002FF012806D0FFF74AFF401BB842D5
:1007A000F6D9032503E0606B00F0FCFF00252078FC
:1007B000C0071CBF606801F009F82078800744BFBB
:1007C000A06801F003F82078800644BF206900F09B
:1007D000D5FF6078800744BF206A00F0BFFF6078D3
:1007E000400744BF606A00F0B9FF6078000744BF6B
:1007F000A06A00F0B3FF2078400644BF606900F0B3
:1008000091FF2078000644BFA06900F08BFF60785C
:10081000C0071CBFE06900F085FF2078C0060AD53C
:10082000E06800F091FFE068B0F5807F02BF3068BB
:1008300040F0807030606078000609D5206B00F0D1
:10084000A7FF206B002802BF306840F08070306046
:10085000607840060AD5E06A00F030FFE06AB0F147
:10086000005F02BF306840F480303060E8B201B011
:10087000F0BD00002DE9F0410C460546002D00F0CA
:10088000C48044F20007C5F60007386800F007008E
:10089000A04212D2386820F0070020433860FFF7EA
:1008A000C7FE0646386800F00700A04205D0FFF7F3
:1008B000BFFE801B0228F5D948E0287880070ED5B6
:1008C000A86800F011FFFFF7B3FE064600F03CFEFB
:1008D00028B9FFF7ADFE801B0228F7D936E028784B
:1008E00040060ED5686900F0F3FEFFF7A1FE06464C
:1008F00000F042FE28B9FFF79BFE801B0228F7D9C3
:1009000024E0287840070ED5E86800F0F7FEFFF7EE
:100910008FFE064600F020FE28B9FFF789FE801BF7
:100920000228F7D912E02878000713D52869C000FB
:1009300000F0EEFEFFF77CFE064600BF00F014FE5E
:1009400040B9FFF775FE801B0228F7D90320C0B21B
:10095000BDE8F0812878C00723D0686838B1032843
:100960004AD002284DD100F0C9FD20B94DE000F079
:1009700057FE002849D0686800F01EFFFFF758FEB8
:10098000064641F2883800BF00F082FD6968B0EB8E
:10099000810F06D0FFF74CFE811B03204145F3D9A0
:1009A00017E0386800F00700A04215D9386820F039
:1009B000070020433860FFF73BFE0546386800F02B
:1009C0000700A04208D0FFF733FE411B0320022995
:1009D000F4D9C0B2BDE8F08100F01CF840F2040187
:1009E000C2F20001086040F24400C2F20000006858
:1009F000BDE8F041FFF748BE00F052FE0028BAD132
:100A000003E000F091FD0028B5D10120C0B2BDE89F
:100A1000F081000010B500F02FF8044600F010FD42
:100A20003C2101EA900045F23C11C0F60001085853
:100A3000B4FBF0F010BD000010B5FFF7EBFF04466B
:100A400000F006FD000A45F27C11C0F6000151F8E5
:100A5000200024FA00F010BD10B5FFF7DBFF0446BC
:100A600000F0FEFCC00A45F27C11C0F6000151F80E
:100A7000200024FA00F010BDF0B581B000F008FDB0
:100A8000044642F20046C0F2F40644F60007C0F203
:100A9000E81700F0EDFD1CB10C2C08BF012815D1A2
:100AA00000F0B8FD054600F0B5FD25B1012807D1DD
:100AB00000F0A2FD06E0012813D100F09DFD12E038
:100AC00000F0A0FD00F0F00004210FE0042C3DD068
:100AD000082C3ED100F00CFD01283C4608BF3446EE
:100AE00038E000F08FFD00F470600821C84045F246
:100AF0009C11C0F6000151F82050002C2C4618BF64
:100B0000002400F0C5FC0C281DD100F0B1FD022826
:100B100008D0032805D100F0EBFC012818BF3E46A1
:100B200000E02E4600F0ACFD00FB06F400F098FD5E
:100B3000012505EB1010B4FBF0F400F0A9FD05EB66
:100B40005070B4FBF0F4204601B0F0BD00253446EF
:100B5000D7E700240025D4E72DE9F0470446002C10
:100B600000F0A18000F094FC814600F081FD064673
:100B70002078800640F29008C5F6000851D420780D
:100B8000C0070ED0B9F1080F05D0B9F10C0F08BF9E
:100B9000032E40F05A816068002804BF0120BDE8A0
:100BA000F0872078800711D52069B9F1040F05D0AE
:100BB000B9F10C0F08BF022E40F05B81002804BF82
:100BC0000120BDE8F087606900F0B4FC20780007E0
:100BD00059D42078400769D4E66A002E00F01C82C0
:100BE000B9F10C0F40F0E880012E5CD058F8840C6D
:100BF000216B00F003028A4255D1616B00F0700254
:100C00008A4250D1A16B00F4FE42B2EB012F4AD1CF
:100C1000616C00F0604088421CBF0120BDE8F08795
:100C2000FAE1206AB9F1000F05D0B9F10C0F08BF45
:100C3000012E40F0AD80B0B3A06A4FF0B0410A6819
:100C400012F0080F06BFD8F804100909096801F06E
:100C5000F001884262D900F0BDFE00281CBF0120CF
:100C6000BDE8F0874FF0B040016841F00801016035
:100C70000168A26A21F0F00141EA02010160606AA4
:100C800000F0D4FC61E0A069002870D0D8F804001E
:100C900000F01001E2698A4200F0448100F0030193
:100CA000022940F0FB800120BDE8F08700F0B0FB96
:100CB00070B9FFF72FFDFFF7BBFC064600F0A8FB5D
:100CC00030B9FFF7B5FC811B03200229F6D9A4E156
:100CD000E068002800F0F480852818BF052805D1B9
:100CE000D8F8000040F00400C8F80000FFF7A0FCAE
:100CF0000646D8F8000040F00100C8F8000041F2B4
:100D0000883700BF00F040FC002840F07F80FFF7EC
:100D10008FFC811B0320B942F4D97EE14FF0B04033
:100D2000016841F0080101600168A26A21F0F00148
:100D300011430160606A00F079FCA06A00F04AFE8D
:100D400000281CBF0120BDE8F087FFF763FE40F2DA
:100D50000401C2F20001086040F24400C2F2000047
:100D60000068FFF791FC002840F0578107E700F08A
:100D70001BFCFFF75DFC064600F026FC00283FF454
:100D800028AFFFF755FC811B03201129F4D944E15A
:100D9000002800F0AE8000F027FCFFF749FC074672
:100DA00000F03EFC002840F0CF80FFF741FCC11B63
:100DB00003200229F4D930E100F042FCFFF738FCAF
:100DC0000546022E14D100BF00F06AFC002800F096
:100DD000F980FFF72DFC411B03200A29F4D91CE1FF
:100DE000FFF726FC411B03200A2988BFBDE8F087D6
:100DF00000F056FC0028F3D158F8840C4FF6FC7133
:100E0000CEF6FE61084048F8840C05E1E06840F049
:100E10000400852840F0A880FFF70AFC0646D8F8B1
:100E2000000040F08000C8F8000041F2883500BFA3
:100E3000D8F8000010F4006F7FF4CEAEFFF7F8FB97
:100E4000811B0320A942F3D9E7E04FF0B0400168CD
:100E5000A26821F48011114301606068B0F5041F9D
:100E600000F0EE80B0F5803F40F0EF8000F030FB06
:100E7000EFE0002800F0D38000F04EFBFFF7D8FB36
:100E8000064600BF00F050FB00287FF49CAEFFF741
:100E9000CFFB811B03200229F4D9BEE0C00739D063
:100EA00000F082FBFFF7C4FB064600BF00F08CFB9E
:100EB00080B3FFF7BDFB811B03201129F6D9ACE0FD
:100EC000FFF7B6FB0746D8F8000020F08000C8F80E
:100ED000000041F2883A00BFD8F80050FFF7A8FBA5
:100EE000064615F4006F58D0F11B03205145F3D985
:100EF00093E000F071FBFFF79BFB074600F090FBCF
:100F000000283FF43CAEFFF793FBC11B03200229EE
:100F1000F4D982E0D8F80400E16920F01000084319
:100F2000C8F8040000F048FBFFF782FB064600BF4C
:100F300000F04AFB00287FF44CAEFFF779FB811BE1
:100F400003201129F4D968E04FF0B040016841F066
:100F5000080101600168A26A21F0F00111430160FB
:100F6000606A00F063FB0AE6FFF762FB0646D8F80A
:100F7000000020F08000C8F8000041F2883500BF72
:100F8000D8F8000010F4006F3FF426AEFFF750FBD6
:100F9000811B0320A942F3D93FE0D8F8000020F0DC
:100FA0000100C8F8000041F2883700BF00F0ECFAF9
:100FB00000283FF411AEFFF73BFB811B0320B94231
:100FC000F4D92AE058F8840C48F28C01C1F2C1111E
:100FD000084004F130078ECFD4E910650843104370
:100FE00040EA032038433043284348F8840C00F09B
:100FF0002FFB58F8840C40F0805048F8840CFFF721
:1010000017FB044600F04CFB30B9FFF711FB011B46
:1010100003200A29F6D900E00020BDE8F08700F09F
:1010200073FAFFF705FB064600F07EFA00283FF44E
:10103000CDADFFF7FDFA811B03200229F4D9ECE7BF
:1010400000F04EFA00F044FA03E000F031FA00F04C
:1010500037FA6568FFF7ECFA07465DB100F04EFA23
:1010600000287FF49EADFFF7E3FAC11B032064293B
:10107000F4D9D2E700F042FA00283FF492ADFFF72E
:10108000D7FAC11B03206429F4D9C6E700F0C6BC17
:1010900010B5044694F88400012802BF0220C0B2B3
:1010A00010BD4FF0010084F884004FF02400C4F814
:1010B000880020680168026822F0010202604FF097
:1010C0000050606641F0005021680860204600F042
:1010D00021FD4FF02000C4F888004FF0000084F894
:1010E0008400C0B210BD0000B0B5044694F884007E
:1010F000012802BF0220C0B2B0BD4FF0010084F849
:1011000084004FF02400C4F8880020680568026855
:1011100022F0010202602068826822F0606241EAE7
:1011200002018160204600F0F5FC206805604FF068
:101130002000C4F888004FF0000084F88400C0B29A
:10114000B0BD0000B0B5044694F88400012802BF89
:101150000220C0B2B0BD4FF0010084F884004FF00F
:101160002400C4F8880020680568026822F00102A3
:1011700002602068826822F0604241EA02018160D8
:10118000204600F0C7FC206805604FF02000C4F83E
:1011900088004FF0000084F88400C0B2B0BD0000A9
:1011A00010B50446ACB1D4F8880028B9002084F802
:1011B0008400204600F02AF82420C4F88800206823
:1011C000016821F001010160204600F073FD012853
:1011D00001D1012010BDA06A00281CBF204600F0EC
:1011E000C9FC2068416821F4904141602068816811
:1011F00021F02A0181602068016841F0010101604D
:101200002046BDE8104000F01BBD000010B594B0B2
:10121000044600201390CDE91100CDE90F0001A88C
:101220003821FFF7B9F8206844F20041C4F2000108
:1012300088422DD043F60001C4F20101884249D111
:10124000012001904FF44030029001A8FFF76CFAA2
:10125000002818BFFFF70AF900F0CAF84FF002049F
:101260004FF0020000F0A6F84FF0C000CDE90F04E7
:101270004FF00000CDE911004FF00700139040F24D
:101280000040C4F600000FA9FFF7F6F814B010BD37
:10129000022401944FF44020039001A8FFF744FA80
:1012A000002818BFFFF7E2F800F092F84FF00100B5
:1012B00000F080F84FF00C00CDE90F044FF0000073
:1012C000CDE911004FF0070013900FA94FF09040A7
:1012D000FFF7D2F814B010BD2DE9F04381B01D46E0
:1012E00016460F460446D4F8880020281CD1012059
:1012F000002F18BF002E48D04FF00009C4F890907E
:101300002120C4F88800FFF793F98046A4F85460C0
:10131000A4F85660A068B0F5805F07D12669002E5A
:101320000CBFB9463E4608E002202EE03E4604E0EF
:10133000B4F856000138A4F85600B4F85600A0B12D
:101340000095204680210022434600F0FBFDB0B905
:1013500020681EB116F8011B8162E9E739F8021B0B
:101360006FF35F2181620026E2E70095204640216D
:101370000022434600F0E6FD18B1032005E00320FB
:1013800003E02020C4F888000020C0B201B0BDE80E
:10139000F0830000FEE7000081B04C21C5F600019B
:1013A0000A6802430A60096808400090009801B08A
:1013B0007047000081B04C21C5F600010A68024365
:1013C0000A60096808400090009801B0704700006A
:1013D00081B05820C5F60000016841F40031016079
:1013E000006800F400300090009801B070470000E1
:1013F00081B06020C5F60000016841F480410160C1
:10140000006800F480400090009801B07047000030
:1014100040F20040C5F600000068C0F300207047AD
:101420009020C5F60000016841F4803101607047EA
:1014300040F20810C5F6000000680001C0B2704715
:101440000820C5F60000006800F0F00070470000BA
:101450000820C5F60000006800F4E0607047000056
:101460000820C5F60000006800F4605070470000D6
:101470008820C5F60000006800F440607047000056
:101480009020C5F60000006800F44070704700002E
:101490000820C5F60000006800F00C00704700004E
:1014A0008821C5F600010968014041EA0040704703
:1014B0004FF0B040016821F48031016070470000B6
:1014C0004FF0B040016821F4001101607047000046
:1014D0004FF0B040016841F4803101607047000076
:1014E0004FF0B040016841F4001101607047000006
:1014F0004FF0B0400068C0F3005070474FF0B0406C
:101500000068C0F3404070474FF0B040016821F4DC
:1015100080710160704700004FF0B040016841F4F5
:1015200080710160704700004FF0B0400068C0F368
:10153000802070470421C5F600010A6822F0FE42AF
:1015400042EA0060086070470820C5F600000068A5
:10155000C0F30040704700000820C5F60000006896
:10156000C0F34040704700000820C5F60000006846
:10157000C0F380407047000040F20810C5F600003C
:101580000068C0F3004070479020C5F60000006876
:10159000C0F34000704700009020C5F600000068CE
:1015A000C0F34000704700009420C5F600000168B9
:1015B00021F00101016070479420C5F60000016828
:1015C00041F00101016070479420C5F600000068F9
:1015D000C0F34000704700004FF0B040016821F0B8
:1015E00001010160704700004FF0B040016841F018
:1015F00001010160704700004FF0B040006800F04A
:10160000F00070479420C5F60000006800F4706098
:10161000704700004FF0B0400068C0F3C000704752
:101620004FF0B0400068C0F3400070470421C5F699
:1016300000010A6822F47F4242EA002008607047F5
:101640004FF0B040016821F08071016070470000E8
:101650004FF0B040016841F08071016070470000B8
:101660000C20C5F60000006800F070007047000014
:101670000C20C5F60000006800F003007047000071
:101680000C20C5F600000068C0F30620704700007B
:101690000C20C5F60000006800F0604070470000B4
:1016A0004FF0B0400068C0F3406070479020C5F62E
:1016B0000000016821F48031016070478821C5F67F
:1016C00000010A6822F04052104308607047000091
:1016D00040F20811C5F600010A6822F00F0242EA42
:1016E00010100860704700000821C5F600010A6864
:1016F00022F0F00210430860704700000821C5F690
:1017000000010A6822F4E06210430860704700009C
:101710000821C5F600010A6822F4605210430860EF
:10172000704700004FF47F2101EA00116FF47F221F
:1017300042EA101080F47F208822C5F60002136868
:1017400018400843106070478821C5F600010A68F8
:1017500022F4407210430860704700004FF6FF719A
:10176000014381F07F4181F47F018822C5F60002A8
:101770001368194041EA0040106070478821C5F69F
:1017800000010A6822F440621043086070470000BC
:101790008821C5F600010A6822F040421043086023
:1017A000704700009021C5F600010A6822F44072DB
:1017B00010430860704700000821C5F600010A6860
:1017C00022F0030210430860704700008821C5F62C
:1017D00000010A6822EA104280B210430860704794
:1017E00080B50420FFF7D8FD0220FFF7D5FD0120CA
:1017F000BDE88040FFF7D0BD80B540F24820C2F27E
:10180000000043F60001C4F2010101604FF4E13130
:1018100041600021C0E9021101610C22C0E90911F7
:10182000C0E90711C0E90521FFF7BAFC002818BF7D
:10183000FEF71CFE40F24820C2F200004FF000010B
:10184000FFF780FC002818BFFEF710FE40F248208A
:10185000C2F200004FF00001FFF746FC002818BF5D
:10186000FEF704FE40F24820C2F20000FFF710FC31
:1018700000281CBFBDE88040FEF7F8BD80BD000019
:1018800080B540F2DC20C2F2000044F20041C4F214
:10189000000101604FF4E13141600021C0E9021113
:1018A00001610C22C0E90911C0E90711C0E9052155
:1018B000FFF776FC002818BFFEF7D8FD40F2DC20C9
:1018C000C2F200004FF00001FFF73CFC002818BFF7
:1018D000FEF7CCFD40F2DC20C2F200004FF0000128
:1018E000FFF702FC002818BFFEF7C0FD40F2DC2025
:1018F000C2F20000FFF7CCFB00281CBFBDE880400F
:10190000FEF7B4BD80BD0000FEE70000FEE700006A
:1019100000F0070000F1040CC31EBCF1070F38BF34
:10192000002380F00700042828BF04204FF0010C9A
:101930000CFA00F00138084098400CFA03F1013924
:10194000114008437047000070B544F20005C5F629
:101950000005B1F5007F0DD1002145F2DC12C0F683
:10196000000200BF32F81130834212D20131032944
:10197000F8D30CE0002145F2E212C0F6000200BFED
:1019800032F81130834204D201310329F8D3002602
:1019900002E00DA050F82160286820F007003043D5
:1019A0002860FEF745FE0446286800F00700B042B4
:1019B00007D0FEF73DFE001B0328F5D30320C0B27D
:1019C00070BD0020C0B270BD00000000010000002A
:1019D00002000000B0B53C2404EA900045F29C11DE
:1019E000C0F600010D58FFF723FD04EA900045F210
:1019F0003C11C0F600010858B5FBF0F04DF68361CC
:101A0000C4F21B31A0FB01018C0CFEF77BFE0146EA
:101A10002046BDE8B040FFF797BF0000B0B50138E1
:101A20000024B4EB106F1EBF01242046B0BD4EF25F
:101A30001005CEF2000568604FF0FF304FF00F0147
:101A400000F002FBAC604FF0070028602046B0BDFC
:101A5000B0B501380024B4EB106F18BFB0BD4EF222
:101A60001005CEF2000568604FF00F0000F0FEFA9E
:101A7000AC604FF007002860B0BD000080B5FEF7F5
:101A8000DDFD02F0C7F9002808BF80BD02F086F92D
:101A900003F0BAF9BDE8804002F090B9B0B59AB051
:101AA00008AC201D4421FEF777FC0025CDE9065542
:101AB000CDE90455CDE9025540F20040C5F60000DD
:101AC0000168022262F34A210160006800F4C060EC
:101AD0000190019808924FF480700C9040200D9076
:101AE00013952046FFF738F878B94F20029001206F
:101AF0000795CDE90555CDE9030502A80021FEF7BC
:101B0000B9FE002804BF1AB0B0BDFEF7AFFC00005C
:101B100070470000416EF9B180B501688A68896834
:101B2000490F0FF2400C1CF801300FF2400E1EF866
:101B30000110C900B1FBF3F1A0F86A10C2F34261D1
:101B40001CF801201EF80110C900B1FBF2F1BDE83C
:101B50008040A0F8681070470121A0F86A10A0F832
:101B60006810704708040204080101010101010323
:101B70000701000090F82810C90706D001684A68DC
:101B8000C36A22F400321A434A6090F82810890789
:101B900006D501684A68036B22F480321A434A6012
:101BA00090F82810490706D501684A68436B22F46B
:101BB00080221A434A6090F82810090706D5016868
:101BC0004A68836B22F400421A434A6090F8281056
:101BD000C90606D501688A68C36B22F480521A438D
:101BE0008A6090F82810890606D501688A68036C17
:101BF00022F400521A438A6090F82810490611D541
:101C000001684A68436C22F480121A434A60416CAE
:101C1000B1F5801F06D101684A68836C22F4C002C6
:101C20001A434A6090F82810090658BF70470168A7
:101C30004A68C06C22F4002240EA02004860704703
:101C4000B0B582B004460020C4F89000FEF7F0FC66
:101C500005462068006810F0080F0CD06FF07E4039
:101C6000009020464FF4001100222B4600F06AF944
:101C700008B103201BE02068006810F0040F0CD0AE
:101C80006FF07E40009020464FF4800100222B46EA
:101C900000F058F908B1032009E02020C4F88800BA
:101CA000C4F88C000020E066206784F88400C0B28D
:101CB00002B0B0BDF0B581B00446E0692168A26809
:101CC000D4E904370E6846F6F315CCF6FF752E40BE
:101CD0001A433A4310433043086020684168E26881
:101CE00021F44051114341602068A16948F2000687
:101CF000C4F20006B0421CBF226A114340F68007BE
:101D0000C0F2040782684FF2FF43C1F2FF1302EAF8
:101D1000030241EA020181602068C16A626A21F01F
:101D20000F0141EA0201C162216842F20045C0F29E
:101D3000F40544F20040C4F20000814218D0B142E0
:101D400021D043F60000C4F20100814253D10320A8
:101D5000FFF7A6FBA0F54030042824D200EB80005A
:101D60006FF31F50791C6FF31F5121FA00F01BE035
:101D70000C20FFF795FBA0F540204FEAB0010429A5
:101D800011D2800806E0FFF773FB4FEAB021042967
:101D900009D2800A6FF31F5700EB80006FF31F50CA
:101DA00027FA00F000E010202168B14226D0E16956
:101DB000B1F5004F0FD100F01F010120082900F2FA
:101DC000B780DFE801F005646FB567B5B5B56D00A4
:101DD000FEF732FE60E000F01F010120082900F24A
:101DE000A780DFE801F005808BA583A5A5A5890064
:101DF000FEF722FE7CE01020B142D8D100F01F0196
:101E00000120082900F29480DFE801F00592109289
:101E1000089292920E00FEF70FFE01E0FEF72CFEF4
:101E200005461DB9002083E04FF400456668606AEE
:101E300045F2E811C0F6000131F81020B5FBF2F1CF
:101E400006EB46030120994272D3330399426FD8BF
:101E5000284600210023FEF755FA090241EA1061E5
:101E6000000210EB560041F1000132460023FEF75C
:101E700049FAA0F540714FF6FF42C0F20F029142BD
:101E800003D82168C860002052E0012050E0FEF72E
:101E9000E3FD01E0FEF7F0FD05461DB9002047E037
:101EA0004FF400456068616A45F2E812C0F600022E
:101EB00032F81110B5FBF1F1420802EB4101B1FB20
:101EC000F0F0A0F110014FF6EF72914209D84FF6F1
:101ED000F0710140C0F3420008432168C86000204F
:101EE00026E0012024E0FEF7B7FD01E0FEF7C4FD87
:101EF00005461DB900201BE04FF400456068616A8B
:101F000045F2E812C0F6000232F81110B5FBF1F10B
:101F100001EB5001B1FBF0F0A0F110014FF6EF72B0
:101F2000914204D8216880B2C860002000E00120FE
:101F30000121A4F86A10A4F868100021C4E91D1159
:101F400001B0F0BD2DE9F04381B0984616460F462A
:101F500004462068C0693840C01BB0FA80F04009D0
:101F6000B0423BD1DDF8209009F101058DB1FEF7BB
:101F70005FFBB9F1000F17D0A0EB0800484513D85C
:101F80002068016811F0040F1CBFC16911F4006FD3
:101F900026D12068C0693840C01BB0FA80F04009E3
:101FA000B042E3D0002040E0206850E8000F2168F4
:101FB00020F4D07041E80002002AF5D1206850E8F2
:101FC000020F216820F0010041E80202002AF5D149
:101FD0002020C4F8880004F18C0020E0002024E0D8
:101FE0004FF40061016200BF206850E8000F2168D3
:101FF00020F4D07041E80002002AF5D1206850E8B2
:10200000020F216820F0010041E80202002AF5D108
:102010002020C4F88800C4F88C0004F1900020212E
:102020000160002084F884000320C0B201B0BDE844
:10203000F0830000FEE700004EF60C50CEF20000E8
:102040000068C0F30220704700F1604C00F00F03FD
:102050004EF61452CEF200021A44B0F1FF3FC8BF50
:102060000CF56442080110707047000000014EF644
:102070002351CEF200010870704700004EF60C515B
:10208000CEF200010A684FF6FF031A4060F30A22FD
:1020900042F0806040F0FD700860704780B54142BA
:1020A000084000F075FB013880BD000080B500F0ED
:1020B0006FFB013880BD00005060C0E9002108605E
:1020C000704700005060C0E90021086070470000C0
:1020D0005060C0E900210860704700005060C0E90E
:1020E00000210860704700005060C0E900210860CE
:1020F000704700005060C0E9002108607047000090
:10210000486001607047000048600160704700004F
:10211000486001607047000048600160704700003F
:10212000486001607047000048600160704700002F
:10213000D0E90010FFF7ECBF10B5002448B100F063
:1021400015F8411EB4EB917F03D10C2898BF0C20E9
:102150000446204610BD000020F003007047000038
:1021600008440138494208407047000008440138DB
:10217000494208407047000010B50446084600F088
:102180001BF96168084404306060204600F030F8B4
:10219000204610BD10B50C4600F00EF904F11002F7
:1021A0000021904228BF0121084610BD0838704721
:1021B00010B582B0044600F0FFF801A96A4600F0AD
:1021C00043FCDDE90021204600F0E8FA02B010BD32
:1021D000406800F00100704780B500F0EDF8B0FAFB
:1021E00080F0400980BD0000406800F002007047A8
:1021F00010B5044600F062F8046010BD10B582B05E
:102200000024CDE90044A8B101A96A4600F032FCDF
:10221000019817280BDC01A8694600F081F80446F4
:102220003CB1DDE90021204600F0D4FE02E00024AC
:1022300000E00024204602B010BD000010B50446A6
:10224000FFF7D6FF00F0A0F82046BDE8104000F0F0
:1022500095B8000010B5044600F030F800F09AF888
:102260002046BDE8104000F0A1B80000B0B504461B
:1022700000F024F80546FFF7ABFF002804BF204616
:10228000B0BD284600F03CF820462946BDE8B040E5
:10229000FFF772BFB0B50446FFF7A6FF002804BFE2
:1022A0002046B0BD204600F029F8054600F028F889
:1022B00028462146BDE8B040FFF75EBFB0B50446F2
:1022C00000F09CF80546204600F076F8011F2846ED
:1022D000BDE8B04000F0B0BC10B50446002C04BF0F
:1022E000002010BD204600F08BF82046FFF7B2FF1B
:1022F0002046BDE8104000F081B80000006870473B
:1023000010B582B0044600F057F801A96A4600F003
:102310009BFBDDE90021204600F05CFE02B010BD11
:10232000F0B581B00C46064620684FF0FF3101FA47
:1023300000F0356840F29447C2F2000707EB8502CF
:10234000526A10400FD1681C01FA00F0396A084047
:1023500002BF002001B0F0BDFFF7A0FE05463560CA
:1023600007EB8500406AFFF799FE206007EBC51177
:1023700001EB8000D0F8840001B0F0BD416841F06D
:102380000101416070470000416841F00201416075
:1023900070470000416821F0020141607047000071
:1023A000426802F00302114341607047416821F026
:1023B0000101416070470000406820F00300704751
:1023C000F0B581B00C46054600F018F8211F00F06A
:1023D00033FC06466FF00300071B2846FFF7ECFFAF
:1023E00039183046FFF7DCFF28462146FFF7D8FFB3
:1023F0003046FFF723FF304601B0F0BD083070478C
:10240000B0B50D460446FFF7C5FE002808BFB0BDB5
:1024100020462946FFF7D4FF05462046FFF7E8FE91
:102420002846FFF7B1FF2846BDE8B040FFF7C0BE21
:10243000B0B50D460446FFF7ADFE002802BF2546A5
:102440002846B0BDA5F104012046FFF7B9FF0546B7
:10245000FFF79AFF2046FFF7CBFE2046FFF7A8FEC6
:102460002846B0BDB0B50C460546FFF793FE0028E0
:1024700008BFB0BD28462146FFF7A2FF0446FFF77C
:1024800089FF2046FFF7F2FEBDE8B040FFF790BE9F
:10249000FDF79EBE80B540F20400C2F20000006865
:1024A00040F20801C2F20001D1E900230021FDF74A
:1024B00029FF40F27031C2F200010860BDE880409F
:1024C00000F006B8FDF789BE80B5FDF75FFE00009D
:1024D00010B50446002000F077FC2046BDE810400F
:1024E00000F070BC84460098184420F007004FF0BC
:1024F000807340F8043C40F808CC40F80C2C4FF0B6
:10250000123240F8102C4FF0033240F8142C4FF0E8
:10251000023240F8182C4FF0013240F81C2C40F8E1
:10252000201C4FF0113140F8241C4FF0103140F8BE
:10253000281C4FF0093140F82C1C4FF0083140F8AE
:10254000301C4FF0073140F8341C4FF0063140F892
:10255000381C4FF0053140F83C1C4FF0043140F876
:10256000401D7047F0B5D2E90DC3634423F0070363
:102570004FF0807C43F2292EC0F6000E44F6293439
:10258000C0F600044FF012354FF003364FF002371B
:1025900043E9071743E9056543E9034E43F804CCD3
:1025A0004FF0113C4FF0103E4FF009364FF0083518
:1025B0004FF007344FF006314FF0053743E90F7104
:1025C000A3F1340181E8704043E909C04FF00430C1
:1025D00043F8400D5360F0BD2DE9F04116460D461D
:1025E0000446BCB3204600F0AFF9002802BF40F219
:1025F0004D4080B2BDE8F081002E04BFE068054385
:10260000E56001F0F5FA8046264656F8047FBE42A2
:1026100017D000BFBB8DE0683D68D7E90C1200F011
:102620001FF840B1A7F16000012100F087FB97F887
:102630002C00400703D4AE422F46EBD101E000202E
:10264000E060404601F0D2FA00F09EF9002080B22E
:10265000BDE8F08140F24C4080B2BDE8F08100005E
:1026600013F0020F06D1DB0718BF10EA01000AD1F0
:10267000002070470840884202BF11600120704767
:102680004FF00000704710600120704710B54FF008
:10269000000E41F2801CC2F2000C0122002308E06F
:1026A0000EF1080E581C102B0346A4BF6FF001005A
:1026B00010BD1CF80310002002FA00F40C421CBFED
:1026C000704410BD00F1010407282046F4DBE7E761
:1026D00070B5064601F08CFA0546FFF7D7FF0446B1
:1026E000A01C06D1284601F081FA6FF001042046B3
:1026F00070BD04F00700012101FA00F0E10841F289
:102700008012C2F20002535C23EA0000505440F2EF
:102710004800C2F2000040F82460284601F066FA42
:10272000204670BD80B582B0019040F2DC20C2F23C
:10273000000001A901224FF0FF33FEF7CDFD01207B
:1027400002B080BDB0B504467F2C88BFB0BD4FEA53
:10275000D40501F04DFA41F2801CC2F2000C1CF8C5
:10276000052004F007034FF0010101FA03F141EAEB
:1027700002010CF8051040F24801C2F200014FF0CE
:10278000000241F82420BDE8B04001F02FBA00005B
:1027900080B501F029FAC0F1200080BD10B540F2EB
:1027A000944CC2F2000C0CEBC11303EB820EDEF86A
:1027B00084300CF11004C0E90234D860CEF88400F3
:1027C000012000FA01F3DCF820402343CCF820304C
:1027D00090400CEB81014A6A1043486210BD000032
:1027E00080B500BF00F0CEFFFCE7000080B584B0EC
:1027F0000020039045F20420C0F60000006802901B
:1028000045F20020C0F60000006801900920009009
:1028100040F27830C2F2000004A142F2E172C0F648
:102820000002002301F048FF04B080BD69646C65BC
:102830000000000040F27831C2F20001401AB0FA04
:1028400080F040097047000040F29040C2F2000062
:102850000078002818BF01207047000041F2741072
:10286000C2F200000078002818BF01207047000065
:1028700040F27431C2F200010968081AB0FA80F01F
:102880004009704700780238B0FA80F0400970477C
:1028900000780138B0FA80F04009704700780138BC
:1028A000B0FA80F04009704700780138B0FA80F043
:1028B0004009704700780138B0FA80F0400970474D
:1028C0000021017070470000002101707047000076
:1028D0000021017070470000002101707047000066
:1028E0000221017070470000012101707047000053
:1028F0000121017070470000012101707047000044
:1029000001210170704700000021418070470000E4
:102910000021418070470000002141807047000085
:10292000002141807047000043F6EE31418070473E
:1029300046F6EE31418070474AF6EE3141807047ED
:102940004DF6D82141807047408843F6EE31401A59
:10295000B0FA80F040097047408846F6EE31401AE0
:10296000B0FA80F04009704740884AF6EE31401ACC
:10297000B0FA80F04009704740884DF6D821401ADF
:10298000B0FA80F04009704710B501F043FA38B151
:10299000FFF75AFF002818BF10BDFFF75FFF00B117
:1029A00010BD01F025F9044600F064FA41F2181157
:1029B000C2F200010860FFF75BFF002808BFFFF7C5
:1029C00067FD2046BDE8104001F010B910B586B093
:1029D000FDF742FEFFF762F8FEF702FFFEF70CFF7D
:1029E000FEF74EFF01F0C0F9044610A002F026FAEF
:1029F0000CB100BFFEE74FF0FF30059005A80021A5
:102A00004FF48062CDE90022CDE902100BA042F222
:102A1000D901C2F200010022042301F0E3FE00B15B
:102A2000FEE701F053FA00BFFEE700BF626F6F746C
:102A3000207374617274212E2E2E00006170705FFD
:102A4000656E74727900000070B514460D46064636
:102A50007F2E02D8B108002008E03046FFF726FBA1
:102A6000411F46FA01F181F02001063828602160FB
:102A700070BD000070B514460D460646802E08D382
:102A80003046FFF713FB0538012101FA00F030440E
:102A9000461E304629462246BDE87040FFF7D4BFA7
:102AA00070B540F29446C2F200060024C6E9004424
:102AB000C6E9024406F11005C6E9065506F12000F4
:102AC0006421FDF769FC06F1840004E080300134E4
:102AD000182C08BF70BD002140F821500131202979
:102AE000FAD1F3E7B0B50C460546FFF7D9FF284603
:102AF0002146BDE8B04001F0E7BA000040F2944C36
:102B0000C2F2000CDCF80020012ABCBF0020704794
:102B1000DCF800204FF000030CEB83014968814290
:102B200004BF0120704703F101039342A4BF0020BA
:102B30007047F1E740F29440C2F2000000680338A9
:102B4000B0FA80F04009704740F29441C2F20001AF
:102B50000A68531C0B6001EB82014860704700005B
:102B600080B540F2944CC2F2000CDCF80030012B2E
:102B70000DDBDCF800E000220CEB820149688142A9
:102B800006D0013272457346F6DB734600E0002240
:102B9000581E82421EBF0CF1040151F8203041F84A
:102BA0002230CCF8000080BD016191F82D20027523
:102BB000012202731830683101F0A8B9B0B50C4693
:102BC0000546FFF7F1FF281D00F038F8014694F89C
:102BD0002D00884284BF204602F00EF8B0BD0000F0
:102BE000B0B505462C6905F1180001F0ABF90020DD
:102BF0002861287394F870100A290CD1297D94F863
:102C00002D00884208BFB0BD204601F0F5FF4FF00F
:102C10000A002875B0BD204601F0EEFF0A2084F8B6
:102C20007000B0BD10B50446FFF7DAFF201D042187
:102C3000BDE8104000F0A6B80844704710B504463F
:102C400001F098F9002812BF0A20206810F8330C10
:102C500010BD0000006860387047000001F08AB9BC
:102C6000B0B50D46044629688D4208D094F82D0071
:102C700011F8332C904202D309688D42F8D104F147
:102C8000600001F04FF965672046BDE8B04000F0F4
:102C900031BE000010B5044604F1600001F056F9A1
:102CA000616F2046BDE81040FFF7DABF10B504465B
:102CB00004F1600001F04AF9002060672046BDE899
:102CC000104000F0FBBD000001F076B901F074B9CE
:102CD000411E032908D80020DFE801F008020A0E8F
:102CE00040F2B34080B2704740F2B24080B27047C9
:102CF00040F2B44080B2704740F2B54080B27047B5
:102D0000F0B581B01C4615460F46064600F03EF968
:102D1000002086F8780030463946FFF7A1FF05EA23
:102D20000400013004BF01B0F0BD30462A462346FE
:102D300001B0BDE8F04000F0F9BD0000B0B50D46AF
:102D4000044600F091FD20B184F878502046FFF74A
:102D5000ADFF204600F09AFD00281CBF204600F081
:102D6000EFFD204600F09EFD002818BFB0BD2046B4
:102D7000BDE8B04000F02AB8002A18BF00F002B841
:102D800000F012B870B50C4605462868854208BFA9
:102D900070BD00BF50F860692146FFF7CFFFB54214
:102DA0003046F7D170BD000000686038FFF7C6BF3D
:102DB0007F288FBF002040F24801C2F2000151F885
:102DC00020007047FEF744BEFFF750B990F82D1071
:102DD00040F27432C2F20002126892F82D20914241
:102DE00018BF00F003B800F01BB8000070B504462F
:102DF00094F82D6041F21C10C2F2000000EBC605F1
:102E0000284601F0BDF800281CBF304600F09CF8B1
:102E100004F160002946BDE8704001F07BB8000075
:102E200070B5044694F82D6041F21C10C2F2000007
:102E300000EBC605284601F0A3F800281CBF304669
:102E400000F082F804F160002946BDE8704001F00E
:102E50006DB8000010B541F21C11C2F2000101EB87
:102E6000C004204601F08CF8002812BF0020206822
:102E7000603810BD41F21C10C2F2000090F85410EE
:102E800050F8310060387047B0B541F21C14C2F2FE
:102E900000040A2084F85400002500BF601901F0E6
:102EA0008FF80835502DF9D100202065B0BD000005
:102EB00041F21C11C2F2000101EBC00251F83000D6
:102EC0000068801AB0FA80F04009704710B541F2EE
:102ED0001C11C2F2000101EBC004204601F050F8C1
:102EE000002818BF10BD20682146BDE8104001F041
:102EF0006FB8000010B541F21C11C2F20001086D5C
:102F000008B1002408E054310024202252FA84F44D
:102F100051F8040B0028F9D000F066FE2044C0B23E
:102F200010BD00001F218143012202FA01F1C0F30C
:102F3000421041F21C12C2F2000202EB8000026D4C
:102F4000114301657047000010B50446FFF7EAFF22
:102F500041F21C10C2F2000090F85410A14288BF48
:102F600080F8544010BD00001F218143012202FA65
:102F700001F1C0F3421041F21C12C2F2000202EB56
:102F80008000026D22EA010101657047B0B5054677
:102F9000FFF750FC00B1B0BD95F82D4005F1600081
:102FA00000F0D8FF41F21C15C2F2000505EBC40089
:102FB00000F0E6FF00281CBF2046FFF7D5FF95F87C
:102FC0005400844218BFB0BDFFF794FF85F8540049
:102FD000B0BD000010B5D0E902E3CEF80C30C3F864
:102FE00008E040F2944CC2F2000C0CEBC11303EB6E
:102FF000820353F8844F844205D1C3F800E00CF1FA
:103000001000864500D010BD012000FA02F20CEB42
:1030100081035C6A24EA02025A62002A18BF10BDCA
:1030200000FA01F0DCF8201021EA0000CCF82000C2
:1030300010BD000070B5054600F0DAFD04462846D4
:10304000FFF708FF064656B13046FFF7F3FB30B9ED
:103050002846FFF72DFF10B9FFF700FC20B12046EE
:10306000BDE8704000F0C2BDD6F8800018B101384C
:10307000C6F88000F3D140F27430C2F2000000685C
:1030800090F82D00FFF722FF2846FFF7E3FE40F2FD
:103090001801C2F200010968C26F002A18BF114668
:1030A000C0F88010204600F0A1FDBDE87040FFF799
:1030B0006BBC0000F0B581B00C46064676B33046D6
:1030C000FFF752FC60B100F093FD0546F089B1892D
:1030D000814208D1284600F089FD4FF4E1601AE0F2
:1030E00040F24D4017E0371D3846FFF7B7FD38B1C5
:1030F000B0890130B081284600F078FD00200AE058
:10310000384601212246FFF737FE284600F06EFDC3
:10311000FFF73AFC002080B201B0F0BD40F24C4015
:10312000F9E70000002070472DE9F04740F2300435
:10313000C2F20004D4E9000141F27819C2F2000998
:10314000D9E90023101A73EB010038BFBDE8F087FE
:1031500000F06AFE204650F8085F854228D004F14E
:10316000080A4FF0030800BF28692F4657F80C1FC4
:10317000D9E90023511A73EB000019D3A5F10C040F
:103180002E68204600F0EAFCA88C022808D1D5E978
:103190000701C7E90001204600F0A2FC02E000BFE1
:1031A00085F8268055E90210884756453546DBD11B
:1031B00000F062FEBDE8F08780B50068FFF7F8FD1B
:1031C00000281CBFBDE8804001F034BC40F69900E7
:1031D00080BD000080B582B0D0E90001019100906F
:1031E0000098019901F0F0FB02B080BDD0E9002108
:1031F000104600F0FFBC000000F010BD80B584B0A8
:10320000D0E900C18268D0E9043E008BCDE9003EE0
:103210000290604600F032FD04B080BDD0E900218C
:10322000104600F09DBD000070B50D46064600F04A
:10323000F1FD4FF4FA74002800F0A380701E4FF4E3
:10324000FA74252841D8DFE800F013159C9C9C1ADD
:103250001E22262A2E3134383C4043474B4F5357C9
:103260005C6064686C7074787C8084888C909498BE
:10327000002486E0284600F01DFA002481E028465C
:10328000FFF7A8FF7CE0284600F000FA78E0284627
:1032900000F018FA74E02846FFF78EFF70E0284629
:1032A00000F0DEF96CE000F0C1F969E000F0C0F96F
:1032B00066E0284600F0A6F962E0284600F08AF9A8
:1032C0005EE000F003FA00245BE040F69A0458E068
:1032D000284600F037F953E0284600F06BF94FE03C
:1032E000284600F035F94BE0284600F03FF947E06A
:1032F000284600F051F943E0284600F045F9002443
:103300003FE0284600F042F93AE0284600F054F940
:1033100036E0284600F052F932E0284600F050F935
:103320002EE0284600F04EF92AE0284600F050F939
:1033300026E0284600F07EF922E0284600F07EF9DB
:103340001EE0284600F080F91AE0284600F07EF9D9
:1033500016E0284600F080F912E0284600F07EF9D9
:103360000EE02846FFF742FF0AE02846FFF744FF39
:1033700006E02846FFF742FF02E02846FFF74EFF2F
:10338000044600F035FC054640F27430C2F20000FD
:10339000006801680C6201214172FFF779F8284644
:1033A00000F024FCFEE70000B0B50C46054600F036
:1033B00031FD002802BF4FF4FA7080B2B0BDA5F114
:1033C0000101252900F24B804FF4FA70DFE801F08B
:1033D0006715131313191E23282D32363A3F44471D
:1033E0004B50555A5F646A6F74797E83888D9297CB
:1033F0009CA1A6ABB0B580B2B0BD204600F05AF992
:103400004DE02046BDE8B040FFF7E4BE2046BDE8F1
:10341000B04000F03BB92046BDE8B04000F052B9E2
:103420002046BDE8B040FFF7C7BE2046BDE8B0402B
:1034300000F016B9BDE8B04000F0F8B8BDE8B04003
:1034400000F0F6B82046BDE8B04000F0DBB82046FA
:10345000BDE8B04000F0BEB800F038F91FE040F61B
:103460009A0080B2B0BD2046BDE8B04000F06AB816
:103470002046BDE8B04000F09DB82046BDE8B04011
:1034800000F066B82046BDE8B04000F06FB82046B6
:10349000BDE8B04000F080B8204600F075F800208C
:1034A00080B2B0BD2046BDE8B04000F06FB8204605
:1034B000BDE8B04000F080B82046BDE8B04000F064
:1034C0007DB82046BDE8B04000F07AB82046BDE89F
:1034D000B04000F077B82046BDE8B04000F078B8C2
:1034E0002046BDE8B04000F0A5B82046BDE8B04099
:1034F00000F0A4B82046BDE8B04000F0A5B82046D2
:10350000BDE8B04000F0A2B82046BDE8B04000F0F1
:10351000A3B82046BDE8B04000F0A0B82046BDE802
:10352000B040FFF763BE2046BDE8B040FFF764BE81
:103530002046BDE8B040FFF761BE2046BDE8B04080
:10354000FFF76CBED0E90021104600F0BDBD0000C1
:1035500010B50446206800F085FD60600021002859
:1035600008BF40F22231084610BD000010B50446E5
:10357000D4E9000100F038FDA0600021002808BF58
:1035800040F22231084610BD00F08CBDD0E9002188
:10359000104600F0EBBD000010B50446D4E9000170
:1035A00000F03EFEA0600021002808BF40F222315A
:1035B000084610BD00F00ABE00F086BE00F0A6BEB0
:1035C00000F0E4BE0168D0E90223084600F0E4BE42
:1035D00000F068BF10B504790068411C02D0FFF705
:1035E000E7FB04E040F27430C2F2000000680028FB
:1035F00004BF40F6990010BD2146BDE8104001F01F
:10360000FBBA00000068411C02BF4FF4EE6080B2BC
:10361000704780B5FFF7CCFB0028BDE8804002BFB3
:1036200040F6990080B2704701F050BB00F0FCBB3F
:1036300000F022BC8188006800F088BFC2888188C1
:10364000006800F087BF000000F09CBF0168D0E96F
:103650000223084600F0CCBF01F026B801F028B8DC
:103660000068411C05D080B5FFF7A2FBBDE8804093
:1036700004E040F27430C2F200000068002818BF75
:1036800001F058BB40F6990070470000B0B584B017
:10369000037CD0E900CED0E90212D0E905404FF416
:1036A0008065CDE900E5CDE90240604601F09AF879
:1036B00004B0B0BD40F27431C2F200010968C968BB
:1036C00001607047006801F081BA000001F082BB20
:1036D000B0B50446FFF7AEF800281EBF40F26D708B
:1036E00080B2B0BD00F084FA054604F1680000F035
:1036F0004DFC10B9204600F079F8204600F0C0F8E3
:1037000000281CBF2046FFF741FC204600F0C4F80B
:1037100000281CBF204600F013F9204600F0AAF84C
:1037200000281CBF2046FFF7C1FA04F1480000F052
:1037300015FCE068FFF706F8204600F067F8204621
:1037400000F0D4F8284600F051FAFFF71DF94FF0C9
:10375000000080B2B0BD0000002001F0AFB9000051
:1037600010B50446206B00F09DFC204600F09AFC4A
:10377000606B002808BF10BD00F094FC4FF0000003
:10378000606310BDF0B581B000F032FA044640F23B
:103790001006C2F200063068B0420AD0054655F85D
:1037A000407900F0DBFB2846FFF7DAFFB7423846E6
:1037B000F4D1204601B0BDE8F04000F017BA000097
:1037C00070B5044654F8686F0A25B4420BD000BFA8
:1037D000A6F11400FFF732FAE9B2884238BF054675
:1037E0003668B442F4D1E8B270BD0000B0B504460A
:1037F00054F8680F844208BFB0BD00BF50F8185994
:10380000FFF710FAAC422846F8D1B0BDB0B5044677
:1038100004F110052846FFF75FF804F1400000F0BE
:10382000D3FB04F1480000F0CFFB04F1580000F096
:10383000CBFB04F1600000F0C7FB04F1680000F06E
:10384000C3FB0A2084F87000002084F878006067C9
:10385000C4E92100607220724FF0FF30E06028461A
:10386000BDE8B040FFF75CB890F82C0000F0020013
:103870007047000090F82C0000F002007047000034
:1038800090F82C00B0FA80F04009704790F82C00B6
:1038900000F001007047000090F82C0000F00100DB
:1038A0007047000090F82C0000F004007047000002
:1038B00090F82C0000F004007047000090F82C10E5
:1038C00001F0FD0180F82C107047000090F82C10DA
:1038D00001F0FE0180F82C107047000090F82C10C9
:1038E00001F0FB0180F82C1070470000082180F8DF
:1038F0002C10704790F82C1041F0020180F82C1029
:1039000070470000002180F82C10704790F82C10B0
:1039100041F0010180F82C107047000090F82C1045
:1039200041F0040180F82C107047000010B50446E7
:1039300000F010F82046BDE81040FFF7E7BF000098
:1039400010B5044600F056F82046BDE81040FFF7D9
:10395000BDBF00002DE9F0471E461746814600F026
:1039600047F98046CC464CF8507FCCF8046040F2D2
:10397000240EC2F2000EDEF8001071451ED0DCE904
:10398000006A0025002000BF51E90223521943417B
:10399000B71A7AEB030714D386EA02078AEA03040C
:1039A0003C4305D111F82B4C99F82D70A74208D350
:1039B0000968714515461846E6D10AE00022002341
:1039C00007E0DCE90023521B8341CCE90023A1F18D
:1039D000080CDCE90007801A67EB0302CCE900025F
:1039E00009F1580000F0A6FA4046BDE8F04700F0A3
:1039F000FDB800002DE9F041064600F0F9F8044654
:103A000006F15805284600F0C7FA38B1284600F0FC
:103A1000A9FA2046BDE8F04100F0E8B8286840F275
:103A20002401C2F200018842F0D0D6E91482B06DC0
:103A30004FF0FF3C6FF0010EBEEB08076CEB02018C
:103A400050F8083D4668FF1AB14102D2C0E900ECC7
:103A5000DCE718EB03017241C0E90012D6E7000071
:103A60002DE9F0410E46074600F0C2F8804641F2CB
:103A70007810C2F20000D0E90012C9197241C0E901
:103A8000001240F22405C2F20005284600F084FA34
:103A900000BB286850F8042C014651F8083DFC1A78
:103AA00076EB020404D2D81BB241C1E9000211E056
:103AB0000022C1E90022A8420CD000BF50E9021246
:103AC000114307D1046858380221FFF737F9AC4297
:103AD0002046F3D14046BDE8F04100F087B8000031
:103AE0002DE9F04381B0054600F082F880462E466D
:103AF00056F8180F716841F27812C2F20002D2E94A
:103B0000002380185941C6E9000140F23009C2F291
:103B10000009484650F8081F81420CD0D6E900023F
:103B200009F10803D1E90347041B72EB070702D32D
:103B300009689942F6D10C35284600F0FFF9D9F80A
:103B40000800A84204BFD6E90001C9E900014046C7
:103B500001B0BDE8F04300F049B800002DE9F041A4
:103B6000064600F045F8044640F23008C2F200086C
:103B7000D8F8087006F10C05284600F0F7F9A7F10F
:103B80000C00B0420DD1284600F00CFA20B14FF0E5
:103B9000FF304FF0FF3102E02868D0E90301C8E9A7
:103BA00000012046BDE8F04100F020B810B500F05B
:103BB0001FF8044640F24800C2F200004FF40071C2
:103BC000FCF7EAFB41F28010C2F20000FF21017411
:103BD0004FF0FF31C1608160416001602046BDE867
:103BE000104000F003B80000FCF7CDBAFCF7C8BAEB
:103BF000FCF7C2BA10B5044664B1E160201DFFF7BE
:103C000065F82046FEF790FE2046FEF76DFE002088
:103C100080B210BD40F24C4080B210BDF0B581B012
:103C2000044644B32046FEF78FFEE0B12046FEF77F
:103C30002FFED8B1FFF7DCFF0546261D30460321D5
:103C4000FFF7A0F80027E7603046FFF73DF8204671
:103C5000FEF75AFE2046FEF733FE2846FFF7C6FF62
:103C6000FEF792FE04E040F24D4701E040F24E477D
:103C7000B8B201B0F0BD40F24C47F9E72DE9F04F82
:103C800081B017460D460446DDE90A980C9EFEF702
:103C9000DBFD002860D140F24C40002C18BF002F03
:103CA00020D02046FEF750FED0B116F003014FF0B1
:103CB000C80018BF032915D0FFF79AFF8246E068B5
:103CC00029463A463346FEF7CBFC78B1700744BF2D
:103CD0000020E0605046FFF789FF4FF0000001E050
:103CE00040F24D4080B201B0BDE8F08F59EA0800C3
:103CF00008D0FEF7B3FD58B15046FFF777FF40F20A
:103D0000B140EFE75046FFF771FF4FF49660E9E7E7
:103D100040F2743BC2F2000BDBF80000C0E924570C
:103D2000A0F88C60211D4A464346FEF7E9FF504645
:103D3000FFF75CFFFEF728FEDBF800000021C0E97A
:103D40002411A0F88C10DBF8000090F8780001B086
:103D5000BDE8F04FFEF7BCBF4FF4C870C2E70000EB
:103D60000122FEF739BC000080B5FEF793FBFFF798
:103D70008BF8FFF71BFF44F20000C2F2000049F687
:103D80008011FEF7AFFE002818BF80BDFEF72EFDA4
:103D900000B180BDBDE88040FFF7C4B980B500F038
:103DA00039F8002808BF80BD40F29040C2F2000000
:103DB0000178F9299CBF0131017080BD10B500F078
:103DC00029F8002808BF10BDFFF712FF0446FEF7D0
:103DD0003BFDC8B140F29040C2F2000001780139C9
:103DE0000170FEF731FD78B9FEF738FD60B9FFF7D5
:103DF00041F841F21811C2F200010860FEF738FDE7
:103E0000002808BFFEF75EFB2046BDE81040FFF724
:103E1000EDBE000040F29140C2F20000007801388F
:103E2000B0FA80F04009704710B5FEF70DFDF0B90B
:103E3000FFF7F0FF002802BF4FF4FA7080B210BD08
:103E400041F27414C2F200042078F92882BF4FF4C2
:103E5000167080B210BDFFF7CBFE217801F1010191
:103E60002170FFF7C3FE4FF0000080B210BD4FF489
:103E7000C87080B210BD000080B5FEF7E5FC08BB3D
:103E8000FFF7C8FF002802BF4FF4FA7080B280BD70
:103E9000FEF7E4FC002802BF40F2A56080B280BDBE
:103EA000FFF7A6FE41F27411C2F200010A78A2F1F6
:103EB00001020A70FFF79AFEFEF766FD4FF0000060
:103EC00080B280BD4FF4C87080B280BD80B5FFF76E
:103ED000A1FFB0B9FEF7CEFF41F21811C2F2000106
:103EE000086040F27431C2F20001086040F2914073
:103EF000C2F2000001210170FEF7E6FA002080B254
:103F000080BD40F2F51080B280BD00000A68FEF767
:103F1000D3B800000A68FEF7DBB800000A68FEF7B5
:103F2000DDB800000A465168FEF7CCB80A46516871
:103F3000FEF7CEB80A465168FEF7D6B80A46516871
:103F4000FEF7D8B8D0E90010FEF7DAB8D0E90010D3
:103F5000FEF7DAB8D0E90010FEF7DAB8D0E90010C1
:103F6000FEF7DAB8D0E90010FEF7DAB8D0E90010B1
:103F7000FEF7DAB80168081AB0FA80F04009704715
:103F80000168081AB0FA80F0400970470168081A01
:103F9000B0FA80F0400970470168081AB0FA80F062
:103FA000400970470168081AB0FA80F0400970476C
:103FB000C0E9000070470000C0E900007047000041
:103FC000C0E9000070470000C0E900007047000031
:103FD000B0B50C460546FEF7ABF828462146BDE8CD
:103FE000B040FFF7A3BF0000F0B581B00D4604213B
:103FF000FEF7A2F80446281910302946FEF79CF86F
:10400000002C08BF2046042D98BF2046FEF7F6F886
:104010000646002E02BF002001B0F0BD3046FEF77C
:10402000EDF907462946FEF79BF8A0EB0701A1F141
:1040300001020E2A09D8C1F11001A94298BF2946F0
:1040400008442946FEF78CF8C11B19B13046FEF72B
:10405000EFF906463046214601B0BDE8F040FEF7D4
:104060003BB9000010B5B0F1804F0BD80421FEF72A
:1040700063F80446FEF7C2F820B12146BDE81040BF
:10408000FEF72AB9002010BDB0B501FB00F42046B0
:10409000FFF7E8FF05461DB128462146FCF77CF9ED
:1040A0002846B0BD002808BF704710B5FEF77EF85F
:1040B0000446FEF7C3F82046FEF7ECF8FEF7D6F804
:1040C000BDE81040FEF774B870B50D460446FEF723
:1040D00031FD00281EBF40F22236B0B270BD20462E
:1040E000FEF70CFD00281EBF40F22336B0B270BDB3
:1040F000A5F10800FEF730F80546A00703D04FF4FD
:104100004876B0B270BDA5F10C004FF6F471C3F65D
:10411000FF71884282BF40F22136B0B270BD2046A6
:104120006FF00301FEF788FD06462946FEF738F9D1
:104130003046FEF723F93046FEF72CF93046FEF7FD
:1041400037F83046FEF754F805464FF000064FF0BA
:104150000001FEF725F92846FEF728F92846FEF764
:1041600013F92046FEF7F0FCB0B270BD70B50C46F6
:1041700040F24C46002818BF002C21D00026C4E98C
:1041800000666FF00301FEF757FD0546C5B100BF9D
:104190002846FEF721F8A8B92846FEF719F80028A6
:1041A000264618BF04362846FEF706F9316808444B
:1041B00030602846FEF782F80546002DE8D100263B
:1041C000B0B270BD0026B0B270BD0000B0B582B014
:1041D00004460020CDE90000F4B12046FEF78EFC35
:1041E000A8B120466FF00301FEF726FD0546FEF755
:1041F000E3F801A96A46FEF727FCDDE9002128461D
:10420000FEF7E8FE2046FEF7ABFC002001E04FF48D
:10421000497080B202B0B0BD40F24C40F9E70000F6
:104220002DE9F0470D4604463CB135B92046FFF76D
:1042300039FF00242046BDE8F0875CB32046FDF737
:10424000B5FF0646FEF73AF881463046FEF7B4F869
:10425000804628460421FDF76FFF0746474512D9DF
:104260004846FEF7A9F882464846FDF7B1FFB0B1CF
:1042700008EB0A000430874211D83046FDF7F6FFFC
:104280003046FDF7E7FF30463946FEF7EBF82046AB
:10429000BDE8F0872846BDE8F047FFF7E3BE2846B3
:1042A000FFF7E0FE0646002EC3D0A84538BF4546BE
:1042B000304621462A46FCF756F82046FFF7F2FE24
:1042C00034462046BDE8F087B0B50446FEF7BCFA98
:1042D000A0B9BCB1201DFEF7F9FC002525732561AE
:1042E0000A20207504F11800FFF762FE2046FEF751
:1042F0001FFB2046FEF7FCFAA8B2B0BD4FF4C8750C
:10430000A8B2B0BD40F24C45A8B2B0BD70B50446ED
:10431000FEF79AFA88BBA4B32046FEF71DFB0028DF
:1043200002BF40F24D4080B270BD2046FEF7B6FAA3
:10433000F8B1FFF75DFC0546261D30460321FEF768
:1043400021FD206900281CBF2046FEF749FC3046AD
:10435000FEF7BAFC2046FEF7DBFA2046FEF7B4FA79
:104360002846FFF743FCFEF70FFB4FF0000080B23A
:1043700070BD40F24E4080B270BD4FF4C87080B244
:1043800070BD40F24C4080B270BD00004FF0FF3273
:104390004FF0FF33AFF300802DE9F0411E46174682
:1043A0000446FEF751FA002872D1002C75D0204641
:1043B000FEF7D2FA002802BF40F24D4080B2BDE8BD
:1043C000F081FFF715FC0546207B80B12069FEF7E0
:1043D0004FFAD8B1207BFF2826D001302073284621
:1043E000FFF704FC40F2E93080B2BDE8F08140F212
:1043F0007430C2F2000001682046FEF7D5FB284663
:10440000FFF7F4FB002080B2BDE8F08157EA060018
:1044100012D0FEF723FAB8B12846FFF7E7FB40F2C7
:10442000B14080B2BDE8F0812846FFF7DFFB40F2E3
:10443000EA3080B2BDE8F0812846FFF7D7FB4FF4A1
:10444000966080B2BDE8F08140F27438C2F2000894
:10445000D8F8000090F82D10206990F82D208A429D
:1044600088BF00F0C9FBD8F8000004F104013A4607
:104470003346FEF745FC2846FFF7B8FBFEF784FA03
:10448000D8F8000090F87800BDE8F041FEF720BCB5
:104490004FF4C87080B2BDE8F08140F24C4080B269
:1044A000BDE8F08170B50446FEF7CEF9002844D18E
:1044B000002C46D02046FEF74FFA002802BF40F2FB
:1044C0004D4080B270BDFFF793FB05462069FEF7B3
:1044D000CFF960B1207B0138207310F0FF0F0DD0B1
:1044E0002846FFF783FB40F2E93080B270BD2846D2
:1044F000FFF77CFB4FF47A7080B270BD2046FEF768
:104500006FFB261D3046FEF7A9FB18B12846FFF7C2
:104510006DFB0FE03046FEF79DFB01462046FEF79F
:104520004DFB30460121FEF73FFC2846FFF75EFBBE
:10453000FEF72AFA002080B270BD4FF4C87080B236
:1045400070BD40F24C4080B270BD00004FF6FF726B
:10455000AFF3008010B5044684B1914288BF114684
:10456000A181E281201DFEF7B1FB2046FEF7E4F9B0
:104570002046FEF7C1F9002080B210BD40F24C4049
:1045800080B210BD70B504466CB32046FEF7ECF95E
:10459000002802BF40F24D4080B270BD2046FEF7B9
:1045A00083F9002802BF40F24E4080B270BDFFF791
:1045B0001FFB054604F1040630464FF00301FEF7E9
:1045C000E1FB3046FEF780FB2046FEF7A5F92046CA
:1045D000FEF77EF92846FFF709FBFEF7D5F94FF005
:1045E000000080B270BD40F24C4080B270BD00004F
:1045F0002DE9F0411C4615460646FEF725F9002830
:1046000047D1002E4AD03046FEF7AEF9002802BF4F
:1046100040F24D4080B2BDE8F081FFF7E9FA07466D
:10462000B08940B10138B0813846FFF7DFFA002089
:1046300080B2BDE8F08155EA04000AD0FEF70EF919
:1046400078B13846FFF7D2FA40F2B14080B2BDE807
:10465000F0813846FFF7CAFA4FF4966080B2BDE8A1
:10466000F08140F27438C2F20008D8F80000311D21
:104670002A462346FEF744FB3846FFF7B7FAFEF713
:1046800083F9D8F8000090F87800BDE8F041FEF713
:104690001FBB4FF4C87080B2BDE8F08140F24C40BF
:1046A00080B2BDE8F08100000021FEF703BD0000EC
:1046B0000121FEF7FFBC00002DE9F04F81B09946C3
:1046C000174688460446FEF7BFF8002840F0818070
:1046D00040F24C46002C78D0002F1CBFDDF82CA0F7
:1046E000BAF1000F71D004F110063046FEF744F91C
:1046F00010B140F26C7668E0DDF830B0BBF1400FED
:104700006AD30A98092806D12046FEF793F818B90B
:1047100040F26F7659E062D82046FDF7D9FF054692
:10472000A81C02D140F698064FE02046FFF76EF82D
:1047300004F1480040F21C01C2F20001FFF7EEFB59
:104740003046FEF7FDF83046FEF7DAF8CDF800B057
:1047500043F25972C0F60002384649465346FDF707
:10476000C1FE2060C4E909790A9884F82D00C4F8D4
:1047700030A0C4F83CB004F1140041460F22FBF70E
:1047800016FEE56000266660C4E90D6666720D9946
:10479000E16740F21800C2F200000068002918BF6B
:1047A0000846C4F88000FFF723FA05462046FFF7C5
:1047B000A9F82046FEF734FB2846FFF717FAFFF763
:1047C00029FB10B1FEF7E0F80026B0B201B0BDE859
:1047D000F08F4FF4C876F8E740F27476F5E740F2D0
:1047E0006F76F2E72DE9F04F89B01C4690460D46F2
:1047F0008346FEF729F8002845D1002D46D0012038
:104800009821FFF741FC074647B3DDF848A0504622
:10481000FFF728FC064626B31398FFF723FC8146D2
:10482000FFF7E6F90890C7E90C698DE85004CDF868
:104830000C9013980490149805901598069038469B
:1048400059462A46434600F025F804467CB13846CE
:10485000FEF786FF0898FFF7C9F910E040F27E44A2
:104860000DE03846FFF71EFC40F27E4407E007F1FA
:104870001000FEF735F80898FFF7B8F90024204635
:1048800009B0BDE8F08F4FF4C874F8E740F24C442B
:10489000F5E700002DE9F04F81B09A4617468846AB
:1048A0000446FDF7D1FF002840F0848040F24C46DA
:1048B000002C7BD0002F1CBFDDF82C90B9F1000F2D
:1048C00074D004F110063046FEF756F810B140F2ED
:1048D0006C766BE0DDF830B0BBF1400F6DD30A9819
:1048E000092806D12046FDF7A5FF18B940F26F76DA
:1048F0005CE065D82046FDF7EBFE0546A81C02D11A
:1049000040F6980652E02046FEF780FF04F148008A
:1049100040F21C01C2F20001FFF700FB3046FEF737
:104920000FF83046FDF7ECFFCDF800B043F25972B6
:10493000C0F60002384651464B46FDF7D3FDDDE98F
:104940000D329918C4E90001C4E9097A0A9884F87B
:104950002D00E560C4E90C93C4E90E2B00262681E6
:1049600004F1140041460F22FBF721FD1098056069
:104970000F99E16740F21800C2F2000000680029B8
:1049800018BF0846C4F88000FFF732F905462046F4
:10499000FEF7B8FF2046FEF743FA2846FFF726F950
:1049A000FFF738FA10B1FDF7EFFF0026B0B201B003
:1049B000BDE8F08F4FF4C876F8E740F27476F5E77B
:1049C00040F26F76F2E70000F0B581B00C46054684
:1049D000FDF73AFF20BBFDF741FF10B140F2A460A4
:1049E0001BE055EA04001ED005EA040001301ED089
:1049F000FFF7FEF8064640F27437C2F20007386847
:104A00002A462346FEF792FF3868FEF7BFFA304683
:104A1000FFF7ECF8FDF7B8FF002080B201B0F0BD61
:104A20004FF4C870F9E700F0D5F90020F5E76520EC
:104A3000F3E70000B0B50446FDF706FFB0BBCCB30A
:104A400004F11000FDF798FF002802BF40F24D402E
:104A500080B2B0BDFFF7CCF805462046FDF708FF51
:104A600030B12846FFF7C2F840F26E7080B2B0BD98
:104A70002046FEF711FF0028F3D02046FEF718FF6E
:104A800030B12846FFF7B2F840F2717080B2B0BD85
:104A90002046FEF755FF2046FEF798F92846FFF717
:104AA000A5F8FDF771FF002080B2B0BD4FF4C870CB
:104AB00080B2B0BD40F24C4080B2B0BDB0B505464A
:104AC000FDF7C2FE58BB40F27430C2F20000046829
:104AD000002D18BF2C4604F110052846FDF74CFFA9
:104AE000002802BF40F24D4080B2B0BD2046FDF725
:104AF000BFFE30B1FDF7B2FE18B140F2A46080B243
:104B0000B0BD2846FDF7D6FE002802BF40F24E4059
:104B100080B2B0BD2046BDE8B040FEF7D9BD4FF42D
:104B2000C87080B2B0BD0000B0B50546FDF78CFE80
:104B3000002846D140F27430C2F200000468002D13
:104B400018BF2C4604F110052846FDF715FF002874
:104B500002BF40F24D452846B0BD2046FDF788FE15
:104B600030B1FDF77BFE18B140F2A4652846B0BD18
:104B70002846FDF787FE002802BF40F24E45284632
:104B8000B0BDFFF751F92046FEF7A2FD05461DB165
:104B9000FFF772F92846B0BD2046FDF769FE40B127
:104BA00004F1400040F21001C2F20001FFF7B6F933
:104BB00002E02046FEF7D4FDFFF75EF90025284607
:104BC000B0BD4FF4C8752846B0BD0000411C0BD0E5
:104BD00080B5FEF7EDF80028BDE8804004BF40F640
:104BE00099007047FFF7A0BF40F27430C2F2000096
:104BF0000068FFF799BF0000F0B581B00E4604468B
:104C0000FDF722FE002858D1002C59D004F11000E5
:104C1000FDF7B2FE78B1082E55D8FEF7E9FF05463C
:104C200094F82D00B04209D12846FEF7DFFFFDF7CA
:104C3000ABFE002028E040F24D4025E004F1680082
:104C4000FFF7A4F908B1374608E02046FEF7B8FDA3
:104C50000746B74234BF84F8706037462046FEF7F7
:104C600009FE28B184F82D702046FEF713F805E000
:104C70002046FEF711FE50B184F82D702846FEF74D
:104C8000B5FFFDF781FE002080B201B0F0BD2046E7
:104C9000FEF7F6FD0028F1D02046FEF777F984F8FC
:104CA0002D702046FDF7E4FD18B12046FEF79EF872
:104CB000E4E72046FEF7B4F8E0E74FF4C870E3E716
:104CC00040F24C40E0E740F26F70DDE7B0B50446DB
:104CD0003CB304F11000FDF74FFE002802BF40F284
:104CE0004D4080B2B0BD2046FDF7C2FDE8B9FEF7E9
:104CF0007FFF05462046FEF7DBFD50B12046FEF75C
:104D0000EDFD2046FEF7BCFD00281CBF2046FEF747
:104D10005DF82846FEF76AFFFDF736FE002080B2F8
:104D2000B0BD40F24C4080B2B0BD4FF4EE6080B2F6
:104D3000B0BD0000B0B540F27431C2F200010C68A1
:104D4000002818BF044604F11000FDF715FE0028E6
:104D500002BF40F24D4080B2B0BD2046FDF76AFD73
:104D600000281EBF40F2727080B2B0BD2046FDF731
:104D70007FFD30BBFEF73CFF05462046FEF780FD79
:104D800000281CBF2046FEF701F92046FEF772FD01
:104D900000281CBF2046FDF789FF2046FEF77CFD5A
:104DA00000281CBF2046FEF7CBFD2046FEF7B6FDCF
:104DB0002846FEF71BFFFDF7E7FD4FF0000080B22D
:104DC000B0BDFDF74BFD0028D4D040F2A46080B206
:104DD000B0BD0000B0B5FDF737FD002818BFB0BD6D
:104DE000FEF706FF044640F27435C2F2000528685B
:104DF000FEF7CCF82868FEF713F82046FEF7F6FE1B
:104E0000BDE8B040FDF7C0BD80B5FFF703F800284E
:104E100008BF80BD4FF001004FF00001FEF720FEFB
:104E2000FEF782F940F27430C2F20000006890F898
:104E30002D00BDE88040FEF7FDB800000FB4054B23
:104E400010B503A9044A029800F018F810BC5DF8E8
:104E500014FB0000252700080000002002E008C81D
:104E6000121F08C1002AFAD170477047002001E0E4
:104E700001C1121F002AFBD1704700002DE9FF4F2E
:104E80008DB09B460F460446002606E025280BD031
:104E90005A460F999047641C761C20780028F5D15B
:104EA00011B03046BDE8F08F0025A8460122984990
:104EB00000E0054314F8013F203B02FA03F00842EA
:104EC000F7D120782E2817D114F8010F45F00405EA
:104ED0002A280ED06FF02F022078A0F13001092986
:104EE0000AD808EB880102EB410100EB0108641CC1
:104EF000F2E757F8048B641C20786C280DD004DC92
:104F00004C2812D06A2811D104E074280DD07A28D8
:104F10000CD10AE045F4001507E0617845F48015EE
:104F2000814202D1641C05F58015641C2278692A2F
:104F300045D008DC002AB3D0582A69D0632A10D0A3
:104F4000642A08D13BE0702A67D0732A13D0752AEF
:104F50005CD0782A5CD010465A460F999047761C50
:104F6000D3E017F8040B8DF8000000208DF8010045
:104F7000E946012003E057F8049B4FF0FF30690732
:104F80004FF0000501D40AE06D1C45450DDA85425D
:104F9000FADB19F805100029F6D106E06D1C8542F0
:104FA000FCDB19F805100029F8D12E4404E019F8AB
:104FB000010B5A460F9990476D1EF8D2A5E00A20C2
:104FC0000021CDE90801C5F3025002280DD001CF20
:104FD000C117031E71F100030DDA4FF0000CD0EB86
:104FE0000C006CEB01012D2308E0FF1D27F00707E3
:104FF000F7E80201EDE72B0504D52B238DF82830C7
:1050000001233BE0EB0739D02023F7E70A2000E03B
:1050100010200021CDE9080107E01020002145F013
:105020000405CDE908014FF00808C5F30250022835
:105030000FD001CF00214FF0000A2B071FD5702A97
:105040000DD0DDE908C38CF0100C5CEA030C0CD029
:1050500015E0FF1D27F00707F7E80201EBE7402204
:105060008DF828204FF0010A0BE050EA010306D02A
:1050700030238DF828308DF8292002239A46582AAB
:1050800004D024A20DF120090B9209E026A2F9E731
:10509000DDE90823FBF736F90B9B9B5C09F8013D22
:1050A00050EA0102F4D1ADEB090020300890680706
:1050B00001D44FF001080899884502DDA8EB0100F2
:1050C00000E000208046002506E00AA85A46405D20
:1050D0000F9990476D1C761C5545F6DB04E0302097
:1050E0005A460F999047761CB8F10001A8F10108C3
:1050F000F5DC05E019F8010B5A460F999047761C2C
:105100000899481E08900029F4DC641CC5E60000DC
:10511000092801003031323334353637383961628D
:105120006364656600000000303132333435363751
:105130003839414243444546000000000100000068
:105140000300000005000000010000000100000055
:10515000060000000A00000020000000020000001D
:1051600004000000080000001000000040000000E3
:1051700080000000000100000002000000000000AC
:10518000000000000000000000000000010000001E
:10519000020000000300000004000000A0860100DF
:1051A000400D0300801A060000350C0040420F003D
:1051B00080841E0000093D0000127A000024F400E3
:1051C00000366E010048E801006CDC0200000000BF
:1051D0000000000000000000000000001200240099
:1051E000300006000C001000010002000400060060
:1051F00008000A000C0010002000400080000001A0
:105200001004002080000000485200080000002028
:10521000480000005C4E000890520008002000206A
:10522000380400005C4E0008C8560008004000200A
:10523000B09900002804000890520008480000209F
:10524000501500006C4E00080000000000093D00F1
:10525000E803000000000000100000201000002003
:10526000640000001C0000201C000020240000201E
:105270002400002000000000FFFFFFFFFFFFFFFFF2
:10528000380000203800002001000000100000005D
:105290002DE9F041046800F001F905464DF680184B
:1052A000C2F200080AA74DF69016C2F2000600BF2F
:1052B00040464FF0FF32002300F0C2F9384629463D
:1052C000224600F0FBF9304600F0C6F9F0E700BFD7
:1052D0005B7069643A25645D203A7468697320697B
:1052E0007320746573742120205B66617468657235
:1052F000203A2025645D0D0A200000002DE9F041D0
:10530000046800F0CBF805464DF69018C2F200088C
:105310000AA74DF6A016C2F2000600BF40464FF0A5
:10532000FF32002300F08CF938462946224600F06F
:10533000C5F9304600F090F9F0E700BF5B70696492
:105340003A25645D203A7468697320697320746536
:105350007374322021205B666174686572203A2084
:1053600025645D0D0A00000070B584B04DF6A010F4
:10537000C2F20000012100F045F94DF68010C2F2A2
:1053800000000025002100F03DF94DF69010C2F21A
:105390000000002100F036F9982003904FF4806659
:1053A000CDE900651CA042F20101C2F2000103AC8C
:1053B0002246052300F04CF8CDE9006518A042F222
:1053C0006D01C2F200012246052300F041F800F011
:1053D00065F8039001281DD14DF6A014C2F2000417
:1053E00011A54DF68016C2F2000600BF20464FF010
:1053F000FF32002300F024F90399284600F05EF9FB
:10540000304600F029F94FF47A70002100F052F88C
:10541000ECE700BFFEE700BF746573740000000096
:1054200074657374320000005B7069643A25645DD2
:10543000203A74686973206973206170705F656ECB
:105440007472792021200D0A000000000FDF7047E0
:1054500010B588B04FF0FF34079400900A980DF112
:10546000040C8CE807008DF810300B98059007A805
:10547000069069460720FFF7E9FF0799002818BF43
:105480002146084608B010BD80B582B0019001A940
:105490000820FFF7DBFF02B080BD00BF80B582B0FF
:1054A0004FF0FF30019001A90220FFF7CFFF0198D4
:1054B00002B080BD80B582B0CDE90001694606200A
:1054C000FFF7C4FF02B080BD80B582B0019001A992
:1054D0000920FFF7BBFF02B080BD00BF80B582B0DE
:1054E000019001A90A20FFF7B1FF02B080BD00BF03
:1054F00080B501200021FFF7A9FFB0FA80F0400934
:1055000080BD00BF0B200021FFF7A0BF0C200021B1
:10551000FFF79CBF80B582B0019001A90D20FFF775
:1055200095FF02B080BD00BF80B582B000908DF8BD
:10553000041069460E20FFF789FF02B080BD00BF4E
:105540000F200021FFF782BF80B582B0CDE90001B6
:1055500069461120FFF77AFF02B080BD0146122094
:10556000FFF774BF80B582B00090002001906946BB
:105570001320FFF76BFF019802B080BD80B584B0A7
:10558000002201AB07C301A91420FFF75FFF0398B6
:1055900004B080BD80B584B0CDE901010020039046
:1055A00001A91520FFF752FF039804B080BD00BF8A
:1055B00001461620FFF74ABF80B582B0CDE9000151
:1055C00069461720FFF742FF02B080BD0146182050
:1055D000FFF73CBF01461920FFF738BF01461A20EC
:1055E000FFF734BF80B584B00090CDE9022369464F
:1055F0001B20FFF72BFF04B080BD00BF01461C201D
:10560000FFF724BF80B582B00090ADF80410694662
:105610001D20FFF71BFF02B080BD00BF80B582B028
:105620000090ADF80410ADF8062069461E20FFF783
:105630000DFF02B080BD00BF01461F20FFF706BF6F
:1056400080B584B00090CDE9022369462020FFF7A1
:10565000FDFE04B080BD00BF01462120FFF7F6BE6D
:1056600001462220FFF7F2BE80B582B0CDE90001ED
:1056700069462320FFF7EAFE02B080BD01462420E0
:10568000FFF7E4BE80B588B08DE807000C98ADF850
:1056900018000B9805900A98049069462520FFF79A
:1056A000D5FE08B080BD00BF80B582B0CDE9000155
:1056B00069462620FFF7CAFE02B080BD44F63D6C65
:1056C000C0F6000C6047000001FF01FF01FF01FF71
:1056D00001FF01FF01FF01FF01FF01FF01FF01FFCA
:1056E00001FF01FF01FF01FF01FF01FF01FF01FFBA
:1056F00001FF01FF01FF01FF01FF01FF01FF01FFAA
:1057000001FF01FF01FF01FF01FF01FF01FF01FF99
:1057100001FF01FF01FF01FF01FF01FF01FF01FF89
:1057200001FF01FF01FF01FF01FF01FF01FF01FF79
:1057300001FF01FF01FF01FF01FF01FF01FF01FF69
:1057400001FF01FF01FF01FF01FF01FF01FF01FF59
:1057500001FF01FF01FF01FF01FF01FF01FF01FF49
:1057600001FF01FF01FF01FF01FF01FF01FF01FF39
:1057700001FF01FF01FF01FF01FF01FF01FF01FF29
:1057800001FF01FF01FF01FF01FF01FF01FF01FF19
:1057900001FF01FF01FF01FF01FF01FF01FF01FF09
:1057A00001FF01FF01FF01FF01FF01FF01FF01FFF9
:1057B00001FF01FF01FF01FF01FF01FF01FF01FFE9
:1057C00001FF01FF01FF01FF01FF01FF01FF01FFD9
:1057D00001FF01FF01FF01FF01FF01FF01FF01FFC9
:1057E00001FF01FF01FF01FF01FF01FF01FF01FFB9
:1057F00001FF01FF01FF01FF01FF01FF01E50000C3
:0400000508000139B5
:00000001FF
